:100000000C94A5070C94CD070C94CD070C94CD0748
:100010000C94CD070C94CD070C94CD070C94CD0710
:100020000C94CD070C94CD070C94042A0C948B2AC5
:100030000C94CD070C94CD070C94CD070C94CD07F0
:100040000C94CD070C94CD070C94CD070C94CD07E0
:100050000C94CD070C94CD070C94CD070C94802202
:100060000C94CD070C94CD070C94CD070C94CD07C0
:100070000C94CD070C94CD070C94CD070C94CD07B0
:100080000C94CD070C94CD070C94CD070C94CD07A0
:100090000C9473110C94CD070C94CD070C94CD07E0
:1000A0000C94CD070C94CD070C94CD07036EDB3672
:1000B0003D9A9999993DABAAAA2A3E000000803F3B
:1000C000084AD73B3BCE016E84BCBFFDC12F3D6CBF
:1000D00074319ABD56833DDA3D00C77F11BED9E425
:1000E000BB4C3E916BAAAABE000000803F072C7A51
:1000F000A5BA6CC590DA3B9365FC8BBC53F810FD38
:100100003C5692834DBD879D3AB63DCBC9BF5BBE81
:1001100073DA0FC93F0000700000000024000000E7
:10012000020003000000650054FFEF0000FA8000A9
:100130000B12820001030C30C30E8C8CE914D540E5
:100140000213710F8E3883F8833000F883258EF800
:10015000833000F883FFFFFFFF0FFEA9D6240004C1
:10016000001A8279A10000003CFFFF00000010008F
:100170000038836FA2003E03304000000002CAE353
:10018000093E800000200000000000000040000048
:100190000060000000000C0000000C186E0000065B
:1001A000920A16C0DFFFFF0256FD8CD377FFE1C431
:1001B00096E0C5BEAA00000000FFFF0B2B00001652
:1001C00057000003594000000000001DFA00026CB7
:1001D0001D000000003FFFDFEB003EB3B6000D2224
:1001E0007800002F3C00000000001942B5000039E3
:1001F000A20000B365D90E9FC91DCF4C343000005A
:1002000000500000003BB67AE80064000000C8001F
:100210000000000000100000001000FA9210002200
:100220005E000D229F0001000000320000FF46002A
:100230000063D400001000000004D6000004CC00CD
:100240000004CC000000001072000000400000001C
:10025000000000000000060002000500070000008A
:100260000000640000000000000000000500050020
:1002700064002000000000000000000000000040BA
:10028000000000030000000032F8980000FF650045
:1002900000830F0000FF9BFC000000000000000036
:1002A000000000000000000000000000000000004E
:1002B000000000000000000000000000000000003E
:1002C000000000100040000000000000060000B226
:1002D0006A000200000001FB830068000000D9FCF6
:1002E000007CF1FF83000000000065000000640353
:1002F000E800640028000000250000000016A000AF
:10030000000000100000001000002F00000000019D
:10031000F40000100000280000FFFF4581FFFFFAF5
:10032000720000000000000000004400050005BA53
:10033000C6004778A200000001000000000000068F
:1003400000000000140000254D002F706D00000516
:10035000AE000C02D0000000000000000000000011
:100360000000000000001B00000000000000000072
:100370000000000000006400000008000000000011
:10038000000000000000000000000000000000006D
:10039000000000000000000000000000000000005D
:1003A000000000000000000000000000000000004D
:1003B000000000000000000000000000000000003D
:1003C000000000000000000000000000000000002D
:1003D0000000000000001B00000000000000000002
:1003E00000000E000E00000AC7000400000000001C
:1003F00032FFFFFF9C00000B2B00000002000000FA
:100400000100000064FFE5000000000000000000A3
:1004100000000000000000000100000000000100DA
:100420000000000000000180000001800000018049
:1004300000002426D3000000000000000000060099
:10044000100096003C0000000000000000000000CA
:1004500000000000000C0A4E68CDCF7709501667E7
:1004600059C619CE82000000000000000000000004
:100470000000000000000000000000000017D7840A
:1004800000030000000000000000000000C7938F80
:100490009D1E1B1C19000000000000000000000051
:1004A000000000000000000000000000000203182F
:1004B0008500004000000000030000000300000071
:1004C00000000000004000000000000000000000EC
:1004D000000000000000000000000000000000001C
:1004E000000000000000000000000000000000000C
:1004F000000000000000000000677DDF7E72902E8B
:10050000554CF6E6880000000000000000000000E6
:100510000000000000D8DCB4B8B0D8B9ABF3F8FAEA
:10052000B3B7BB8E9EAEF132F51BF1B4B8B0809775
:10053000F1A9DFDFDFAADFDFDFF2AAC5CDC7A90C93
:10054000C92C97F1A989264666B28999A92D557DAE
:10055000B0B08AA896365676F1BAA3B4B280C0B8C5
:10056000A89711B28398BAA3F0240844106418B273
:10057000B9B49883F1A329557DBAB5B1A38393F09B
:10058000002850F5B2B6AA839328547CF1B9A3820F
:100590009361BAA2DADEDFDB819AB9AEF5606870EA
:1005A000F1DABAA2DFD9BAA2FAB9A38292DB31BAE0
:1005B000A2D9BAA2F8DF85A4D0C1BBAD83C2C5C79A
:1005C000B8A2DFDFDFBAA0DFDFDFD8D8F1B8AAB387
:1005D0008DB4980D355DB2B6BAAF8C96198F9FA7C2
:1005E0000E161EB49AB8AA872C547CBAA4B08AB648
:1005F00091325676B28494A4C808CDD8B8B4B0F17C
:100600009982A82D557D98A80E161EA22C547C9276
:10061000A4F02C5078F184A898C4CDFCD80DDBA8A8
:10062000FC2DF3D9BAA6F8DABAA6DED8BAB2B686E5
:1006300096A6D0F3C841DAA6C8F8D8B0B4B882A854
:1006400092F52C548898F135D9F418D8F1A2D0F845
:10065000F9A884D9C7DFF8F883C5DADF69DF83C179
:10066000D8F40114F1A8824EA884F311D182F5D9EF
:1006700092289788F109F41C1CD884A8F3C0F9D1FA
:10068000D99782F129F40DD8F3F9F9D1D982F4C2BE
:1006900003D8DEDF1AD8F1A2FAF9A88498D9C7DF07
:1006A000F8F8F883C7DADF69DFF883C3D8F40114F8
:1006B000F198A8822EA884F311D182F5D99250978F
:1006C00088F109F41CD884A8F3C0F8F9D1D997822D
:1006D000F149F40DD8F3F9F9D1D982F4C403D8DE85
:1006E000DFD8F1AD8898CCA809F9D98292A8F57C19
:1006F000F1883ACF944A6E98DB6931DAADF2DEF9CF
:10070000D88795A8F221D1DAA5F9F417D9F1AE8EE0
:10071000D0C0C3AE82C684C3A88595C8A588F2C0E0
:10072000F1F4010EF18E9EA8C63E56F554F1887282
:10073000F40115F19845856EF58E9E0488F1429876
:100740005A8E9E068869F4011CF1981E1108D0F596
:1007500004F11E970202983625DBF9D985A5F3C16D
:10076000DA85A5F3DFD88595A8F309DAA5FAD8824A
:1007700092A8F578F1881A849F26889821DAF41DCA
:10078000F3D8879F39D1AFD9DFDFFBF9F40CF3D869
:10079000FAD0F8DAF9F9D0DFD9F9D8F40BD8F38721
:1007A0009F39D1AFD9DFDFF41DF3D8FAFCA869F97E
:1007B000F9AFD0DADEFAD9F88F9FA8F1CCF398DB45
:1007C00045D9AFDFD0F8D8F18F9FA8CAF38809DAEE
:1007D000AF8FCBF8D8F2AD978D0CD9A5DFF9BAA6BB
:1007E000F3FAF412F2D8950DD1D9BAA6F3FADAA534
:1007F000F2C1BAA6F3DFD8F1BAB2B68696A6D0CACD
:10080000F349DAA6CBF8D8B0B4B8D8AD84F2C0DFDB
:10081000F18FCBC3A8B2B68696C8C1CBC3F3B0B430
:100820008898A821DB718D9D71859521D9ADF2FA4B
:10083000D88597A828D9F408D8F28D29DAF405D9F3
:10084000F285A4C2F2D8A88D9401D1D9F411F2D8BE
:100850008721D8F40AD8F28498A8C801D1D9F41114
:10086000D8F3A4C8BBAFD0F2DEF8F8F8F8F8F8F87F
:10087000F8D8F1B8F6B5B9B08A95A3DE3CA3D9F89B
:10088000D85CA3D9F8D87CA3D9F8D8F8F9D1A5D9E0
:10089000DFDAFAD8B18530F7D9DED8F830ADDADE54
:1008A000D8F2B48C99A32D557DA083DFDFDFB591FD
:1008B000A0F629D9FBD8A0FC29D9FAD8A0D051D9C3
:1008C000F8D8FC51D9F9D879D9FBD8A0D0FC79D97E
:1008D000FAD8A1F9F9F9F9F9A0DADFDFDFD8A1F840
:1008E000F8F8F8F8ACDEF8ADDE8393AC2C547CF16C
:1008F000A8DFDFDFF69D2CDAA0DFD9FADB2DF8D8F0
:10090000A850DAA0D0DED9D0F8F8F8DB55F8D8A88E
:1009100078DAA0D0DFD9D0FAF8F8F8F8DB7DF8D88B
:100920009CA88CF530DB38D9D0DEDFA0D0DEDFD854
:10093000A848DB58D9DFD0DEA0DFD0DED8A868DB3E
:1009400070D9DFDFA0DFDFD8F1A888902C547C9825
:10095000A8D05C38D1DAF2AE8CDFF9D8B087A8C164
:10096000C1B188A8C6F9F9DA36D8A8F9DA36D8A814
:10097000F9DA36D8A8F9DA36D8A8F9DA36D8F78D00
:100980009DADF818DAF2AEDFD8F7ADFA30D9A4DEB3
:10099000F9D8F2AEDEFAF983A7D9C3C5C7F1889BAF
:1009A000A77AADF7DEDFA4F8849408A797F300AE2A
:1009B000F29819A488C6A39488F632DFF28393DBF9
:1009C00009D9F2AADFD8D8AEF8F9D1DAF3A4DEA7B4
:1009D000F1889B7AD8F38494AE19F9DAAAF1DFD8BA
:1009E000A881C0C3C5C7A39283F628ADDED9F8D8C5
:1009F000A350ADD9F8D8A378ADD9F8D8F8F9D1A1DA
:100A0000DADEC3C5C7D8A18194F818F2B089ACC3A7
:100A1000C5C7F1D8B8B4B09786A8319B069907AB83
:100A20009728889BF00C201440B0B4B8F0A88A9A9C
:100A3000285078B79BA829517924705944693864A3
:100A40004831F1BBAB88002C547CF0B38BB8A804C0
:100A5000285078F1B088B49726A85998BBABB38BCF
:100A600002264666B0B8F08A9CA82951798B295194
:100A7000798A2470598B2058718A4469388B39409F
:100A8000688A6448318B30496088F1AC002C547C12
:100A9000F08CA804285078F1889726A85998AC8C37
:100AA00002264666F0899CA8295179247059446928
:100AB00038644831A98809205970AB11384069A8B9
:100AC000193148608CA83C415C207C00F187981962
:100AD00086A86E767EA999882D557DD8B1B5B9A323
:100AE000DFDFDFAED0DFAAD0DEF2ABF8F9D9B08716
:100AF000C4AAF1DFDFBBAFDFDFB9D8B1F1A3978EB6
:100B000060DFB084F2C8F8F9D9DED89385F14AB134
:100B100083A308B5839A0810B79F10D8F1B0BAAE76
:100B2000B08AC2B2B68E9EF1FBD9F41DD8F9D90CA9
:100B3000F1D8F8F8AD61D9AEFBD8F40CF1D8F8F8DB
:100B4000AD19D9AEFBDFD8F416F1D8F8AD8D61D967
:100B5000F4F4ACF59C9C8DDF2BBAB6AEFAF8F40B2E
:100B6000D8F1AED0F8AD51DAAEFAF8F1D8B9B1B6E5
:100B7000A3839C08B9B1839AB5AAC0FD3083B79FFF
:100B800010B58B93F20202D1ABDADED8F1B080BAA5
:100B9000ABC0C3B284C1C3D8B1B9F38BA391B609BA
:100BA000B4D9ABDEB0879CB9A3DDF1B38B8B8B8B53
:100BB0008BB087A3A3A3A3B28BB69BF2A3A3A3A3DB
:100BC000A3A3A3A3A3A3F1B087B59AA3F39BA3A365
:100BD000DCBAACDFB9A3A3A3A3A3A3A3A3A3A3A33A
:100BE000A3A3A3A3A3D8D8D8BBB3B7F1AAF9DAFFBC
:100BF000D9809AAA28B48098A720B79787A8668832
:100C0000F07951F1902C870CA781976293F0717164
:100C10006085940129517990A5F1284C6C870C9539
:100C2000188578A38390284C6C886CD8F3A2820036
:100C3000F210A8921980A2F2D926D8F188A84DD92D
:100C400048D896A83980D93CD89580A839A68698E6
:100C5000D92CDA87A72CD8A8899519A980D938D892
:100C6000A88939A980DA3CD8A82EA83990D90CD8FF
:100C7000A8953198D90CD8A809D9FFD801DAFFD89E
:100C80009539A9DA26FFD890A80D8999A8108098DF
:100C900021DA2ED88999A83180DA2ED8A886963103
:100CA00080DA2ED8A8873180DA2ED8A88292F34134
:100CB00080F1D92ED8A882F31980F1D92ED882AC30
:100CC000F3C0A28022F1A62EA72EA92298A829DA85
:100CD000ACDEFFD8A2F22AF1A92E8292A8F23180CE
:100CE000A696F1D900AC8C9C0C30ACDED0DEFFD8DF
:100CF0008C9CACD010ACDE8092A2F24C82A8F1CADF
:100D0000F235F19688A6D900D8F1FF000000002442
:100D10000027002A002D00300000000000250028D8
:100D2000002B002E003100000000002300260029C7
:100D3000002C002F00040404040403040502020232
:100D40000204030202020206060606060604040264
:100D5000020204040802011040804010204080403C
:100D60008008020401804020100201108010204001
:100D7000400000000200080E0000030401000B0008
:100D8000000000000000000000000000000000075C
:100D90000605040100080A0B0C0D09080B000202ED
:100DA00002010009040000010202000005240010F5
:100DB000010524010101042402060524060001079F
:100DC00005810310004009040100020A0000000729
:100DD00005020240000007058302400000040309E9
:100DE000044544547261636B6572320041726475EC
:100DF000696E6F204C4C430012010002000000405D
:100E000041233680000101020001120100020200AC
:100E100000404123368000010102000100C18081B1
:100E2000C105010902A1010901A1008501050919F6
:100E300001290315002501950375018102950175AE
:100E400005810305010930093109381581257F75B0
:100E50000895038106C0C005010906A101850205A8
:100E60000719E029E715002501750195088102950C
:100E70000175088103950675081500256505071994
:100E80000029658100C005010904A101850409014B
:100E9000A100050109300931093216008026FF7FC3
:100EA000751095038182C0C009040200010300008F
:100EB0000009210101000122870007058403400089
:100EC0000100000000000000002A2B2800000000A4
:100ED0000000000000000000000000000000000012
:100EE000002C9EB4A0A1A2A434A6A7A5AE362D378F
:100EF00038271E1F20212223242526B333B62EB7E0
:100F0000B89F8485868788898A8B8C8D8E8F9091F7
:100F100092939495969798999A9B9C9D2F3130A384
:100F2000AD350405060708090A0B0C0D0E0F10114C
:100F300012131415161718191A1B1C1DAFB1B0B5D2
:100F400000000F108F244029142C11241FBECFEF56
:100F5000DAE0DEBFCDBF12E0A0E0B1E0E0E0F2E613
:100F600002C005900D92A03AB107D9F714E0A0EAAB
:100F7000B2E001C01D92A233B107E1F71FE0CAE45D
:100F8000DFE004C02297FE010E94FA30C234D1078C
:100F9000C9F70E945B250C94FE300C940000FB0105
:100FA000DC0104C08D910190801921F44150504022
:100FB000C8F7881B990B08950F931F930EEC13E04D
:100FC000C80160E071E00E94EB26C8016091C80290
:100FD0004AE050E00E9447261F910F9108950F9319
:100FE0001F93CF93DF938C01C0E0D0E0F801EC0FAA
:100FF000FD1F40815181628173818EEC93E02AE074
:1010000030E00E9465268EEC93E063E071E00E9480
:10101000EB262496CC30D10549F7DF91CF911F9173
:101020000F910895CF92DF92EF92FF920F931F934B
:101030009C017B010EEC13E0C801B9010E94EB2674
:10104000F7014081518162817381C8012AE030E05B
:101050000E94652685E0C82E81E0D82EC801B60121
:101060000E94EB26F7014481558166817781C80192
:101070002AE030E00E946526C801B6010E94EB26F6
:10108000F7014085518562857385C8012AE030E00B
:101090000E94A5261F910F91FF90EF90DF90CF90B7
:1010A00008950F931F93CF93DF938C01C0E0D0E09E
:1010B000F801EC0FFD1F608171818EEC93E04AE036
:1010C00050E00E94B9268EEC93E063E071E00E944C
:1010D000EB262296C630D10559F7DF91CF911F91AB
:1010E0000F910895CF92DF92EF92FF920F931F938B
:1010F00024EAC22E22E0D22E89E091E0B6010E94BD
:10110000120890EBE92E92E0F92E86E191E0B7010A
:101110000E9412080EEC13E0C80164E271E00E9424
:10112000EB26C6010E94EF07C7010E94EF07C80126
:1011300067E271E00E94D5271F910F91FF90EF9019
:10114000DF90CF90089580EA92E00E942B1C88E700
:101150000E94B71780ED97E00E94B01582E00E94D0
:10116000731588E70E94C91984E690E00E94681A06
:101170000E944A2288E890E00E94AF218BEC98E020
:101180000E940D1D81ED90E00E94922084E690E087
:101190000E94261F0895EF92FF920F931F93182F1E
:1011A000062F3EECE32E33E0F32EC70168E271E038
:1011B0000E94EB26C701612F70E04AE050E00E94D8
:1011C000B926C70168E371E00E94EB26C701602FD2
:1011D00070E04AE050E00E94CC261F910F91FF90F2
:1011E000EF900895CF92DF92EF92FF920F931F93AB
:1011F000CF93DF937A018B01BC0154E0C52ED12C33
:10120000C80ED91EEB0121968BEB93E04E2D0E9468
:101210000E14EF2CF02E012F112707FD1A95CC1577
:10122000DD0511F0BE01EECFDF91CF911F910F913F
:10123000FF90EF90DF90CF900895CF93DF93C1E0C0
:10124000D0E0FE01ED55FD4F4081518162817381F7
:10125000CE010E94F208FE01E155FD4F408151810F
:1012600062817381CE010C960E94F2082496CD30E3
:10127000D10539F7DF91CF9108958EEC93E040E0EE
:1012800052EC61E070E00E94542464EF71E080E071
:1012900090E00E942C2381E161E00E94942381E48C
:1012A00093E00E94AF10449845980E94A30864E61A
:1012B00070E080E090E00E942C2381E00E94C61A3A
:1012C00064E670E080E090E00E942C238CEB92E0DA
:1012D0000E94F21564E670E080E090E00E942C230A
:1012E00064E670E080E090E00E942C238BEB93E0BA
:1012F00061E270E00E9407148093C802823050F0CF
:1013000081E08093C8028BEB93E061E270E041E002
:101310000E940E1408952F923F924F925F926F9207
:101320007F928F929F92AF92BF92CF92DF92EF9275
:10133000FF920F931F931C011BEB412E13E0512EC4
:10134000BC016D5F7F4FC2010E940714E82EB101FE
:101350006E5F7F4FC2010E940714A82EB1016F5F1C
:101360007F4FC2010E940714682EC201B1010E9482
:101370000714FF2400E010E01E2D0027FF24EE24B8
:10138000BB24CC24DD246501BB24AA24EA28FB2845
:101390000C291D2990E0A0E0B0E0E82AF92A0A2BE8
:1013A0001B2B772488249924982C872C762C662450
:1013B000E628F72808291929B701C8011F910F91BC
:1013C000FF90EF90DF90CF90BF90AF909F908F9065
:1013D0007F906F905F904F903F902F900895CF93A4
:1013E000DF938CEB92E060E00E942F1664E670E0E1
:1013F00080E090E00E942C23C1E0D0E0CE010E946A
:101400008B09FE01ED55FD4F6083718382839383C9
:10141000CE010C960E948B09FE01E155FD4F6083C1
:101420007183828393832496CD30D10539F784EA82
:1014300092E00E94341480EB92E061E00E942F164B
:10144000DF91CF910895CF92DF92EF92FF920F93A9
:101450001F93DF93CF93CDB7DEB72C970FB6F894D9
:10146000DEBF0FBECDBF19821A821B821C821D8275
:101470001E821F82188619861A861B861C868EEC91
:1014800093E06AE371E00E94D527CE0101960E94A5
:1014900034148CEB92E060E00E942F1664E670E05A
:1014A00080E090E00E942C23CC24DD248EED92E09D
:1014B00064EE72E049EC52E02AED32E00AEE12E00E
:1014C000E9EDEE2EE2E0FE2E0E94131D2091A20215
:1014D0003091A3022230310540F58091E4029091D1
:1014E000E5021816190664F48091B0029091B102D9
:1014F000A091B202B091B3020196A11DB11D0DC021
:10150000892B99F08091B0029091B102A091B20222
:10151000B091B3020197A109B1098093B0029093F1
:10152000B102A093B202B093B3022115310519F0B4
:101530002230310559F58091E6029091E7021816A4
:10154000190664F48091B4029091B502A091B6029C
:10155000B091B7020196A11DB11D0DC0892B99F064
:101560008091B4029091B502A091B602B091B702F9
:101570000197A109B1098093B4029093B502A09399
:10158000B602B093B7022115310521F023303105A1
:1015900009F0A8C08091E8029091E90240E481300E
:1015A000940764F08091B8029091B902A091BA02B8
:1015B000B091BB020196A11DB11D0EC08050904498
:1015C00099F08091B8029091B902A091BA02B091BD
:1015D000BB020197A109B1098093B8029093B902A7
:1015E000A093BA02B093BB02232B09F07BC0809179
:1015F000DE029091DF028230910564F08091A402B6
:101600009091A502A091A602B091A7020197A1090D
:10161000B1090EC08F5F9F4F9CF48091A4029091FE
:10162000A502A091A602B091A7020196A11DB11D2D
:101630008093A4029093A502A093A602B093A70260
:101640008091E0029091E1028230910564F08091F6
:10165000A8029091A902A091AA02B091AB020197B1
:10166000A109B1090EC08F5F9F4F9CF48091A80221
:101670009091A902A091AA02B091AB020196A11D7E
:10168000B11D8093A8029093A902A093AA02B093DF
:10169000AB028091E2029091E3028230910564F006
:1016A0008091AC029091AD02A091AE02B091AF02D8
:1016B0000197A109B1090EC08F5F9F4F9CF48091E3
:1016C000AC029091AD02A091AE02B091AF02019632
:1016D000A11DB11D8093AC029093AD02A093AE0208
:1016E000B093AF0289E091E064EA72E00E941208D0
:1016F00088E491E060EB72E00E9412088CEB92E0CB
:1017000060E00E942F1684EA92E00E94341480EB7D
:1017100092E061E00E942F1661E170E080E090E0CD
:101720000E942C230894C11CD11C44E6C416D10489
:1017300009F0BCCE0E9472080E941D090E94EF09A8
:101740002C960FB6F894DEBF0FBECDBFCF91DF91C0
:101750001F910F91FF90EF90DF90CF900895CF935E
:10176000DF938EEC93E00E945524181619060CF0B6
:10177000AFC18EEC93E00E947124833539F410924E
:10178000A1028EEC93E067E571E004C18A3661F155
:101790008A34F1F08B34E1F18B3609F445C08C3694
:1017A00009F456C08C3409F453C08D3409F450C088
:1017B0008D3609F44DC08E3409F44AC08E3609F4D2
:1017C00047C08F3409F444C08F3609F0D7C040C0F9
:1017D0008091B0029091B102A091B202B091B30297
:1017E0000196A11DB11D0BC08091B0029091B10274
:1017F000A091B202B091B3020197A109B1098093FF
:10180000B0029093B102A093B202B093B302AFC002
:101810008091B4029091B502A091B602B091B70246
:101820000196A11DB11D0BC08091B4029091B5022B
:10183000A091B602B091B7020197A109B1098093B6
:10184000B4029093B502A093B602B093B7028FC0D2
:101850008C3461F48091B8029091B902A091BA02DF
:10186000B091BB020196A11DB11D0DC08C36A1F433
:101870008091B8029091B902A091BA02B091BB02D6
:101880000197A109B1098093B8029093B902A0937E
:10189000BA02B093BB026BC08D3461F48091A40294
:1018A0009091A502A091A602B091A7020196A11D58
:1018B000B11D0DC08D36A1F48091A4029091A502B6
:1018C000A091A602B091A7020197A109B109809346
:1018D000A4029093A502A093A602B093A70247C0CA
:1018E0008E3461F48091A8029091A902A091AA027D
:1018F000B091AB020196A11DB11D0DC08E36A1F4B1
:101900008091A8029091A902A091AA02B091AB0285
:101910000197A109B1098093A8029093A902A0930D
:10192000AA02B093AB0223C08F3461F48091AC0261
:101930009091AD02A091AE02B091AF020196A11DAF
:10194000B11D0DC08F3699F48091AC029091AD021B
:10195000A091AE02B091AF020197A109B1098093A5
:10196000AC029093AD02A093AE02B093AF020E947E
:1019700072080E941D090E94EF09A3C0883769F40C
:1019800081E090E09093A3028093A2028EEC93E01A
:1019900069E571E00E94D52794C0893759F482E047
:1019A00090E09093A3028093A2028EEC93E06BE50B
:1019B00071E0F0CF8A3759F483E090E09093A3026E
:1019C0008093A2028EEC93E06DE571E0E3CF813667
:1019D00049F41092A3021092A2028EEC93E06FE5FC
:1019E00071E0D8CF803399F4C0E0D0E08BEB93E086
:1019F000BE0140E00E940E142196CF3FD105B1F701
:101A00001092C8020E94EF090E94720823C0863516
:101A100051F48EEC93E061E671E00E94D52781E0FD
:101A20008093A1024EC0883429F48EEC93E063E6E3
:101A300071E0B0CF803789F440E08091C8028823FC
:101A400009F441E04093C8028BEB93E061E270E05F
:101A50000E940E140E94DC0734C0893449F58EECD4
:101A600093E065E671E00E94EB266091B70170910A
:101A7000B8018EEC93E00E94D5270E94EF090E94E6
:101A8000720888E691E06CEB72E00E9412080E94F6
:101A9000DC078EEC93E065E771E00E94EB268EECAC
:101AA00093E06091A0024AE050E00E94472609C0FE
:101AB000823439F40E94230A04C08EEC93E00E9421
:101AC00071248EEC93E00E94552418161906ACF38D
:101AD000DF91CF9108952F923F924F925F926F9234
:101AE0007F928F929F92AF92BF92CF92DF92EF92AE
:101AF000FF920F931F93DF93CF93CDB7DEB7A097DD
:101B00000FB6F894DEBF0FBECDBF0E94AF0B0E9490
:101B1000C8222091ED023091EE024091EF025091E7
:101B2000F0022617370748075907D8F40E94C82241
:101B300068537F4F8F4F9F4F6093ED027093EE027B
:101B40008093EF029093F00281E16091EC020E9499
:101B5000212490E08091EC02882309F491E0909395
:101B6000EC028EED92E064EE72E049EC52E02AED78
:101B700032E00AEE12E0E9EDEE2EE2E0FE2E0E94E7
:101B8000131D2091C9023091CA024091CB0250919D
:101B9000CC02E090CD02F090CE020091CF021091E5
:101BA000D002A090D102B090D202C090D302D090C7
:101BB000D4028091D5029091D602A091D702B09123
:101BC000D8028D839E83AF83B8878091A10288233A
:101BD00009F4D2C1BA01992777FD9095892F0E9407
:101BE0009A2E20E030E040E858E30E94A62F698753
:101BF0007A878B879C87B801992777FD9095892FE5
:101C00000E949A2E20E030E040E858E30E94A62F80
:101C10001B012C01B601992777FD9095892F0E9411
:101C20009A2E20E030E040E858E30E94A62F3B01C6
:101C30004C012D813E814F815885BA01992777FD4E
:101C40009095892F0E949A2E20E030E040E858E3DA
:101C50000E94A62F5B016C0169857A858B859C8526
:101C60009B01AC010E94A62F6D877E878F87988B82
:101C7000C201B101A20191010E94A62F698B7A8B4A
:101C80008B8B9C8BC401B301A40193010E94A62FEE
:101C90006D8B7E8B8F8B988FC601B501A601950148
:101CA0000E94A62F698F7A8F8B8F9C8FC201B10102
:101CB000A40193010E94A62F7B018C0169857A857E
:101CC0008B859C85A60195010E94A62F9B01AC01E6
:101CD000C801B7010E941E2D9B01AC010E941E2D60
:101CE0007B018C016D857E858F85988929893A894C
:101CF0004B895C890E941E2D2D893E894F89588D04
:101D00000E941D2D298D3A8D4B8D5C8D0E941D2DBD
:101D10009B01AC01C801B7010E94A82D90582DE38A
:101D200038EF42E256E40E94A62F6D8F7E8F8F8F90
:101D300098A38EEC93E04D8D5E8D6F8D78A125E09C
:101D400030E00E94D2278EEC93E063E071E00E94C5
:101D5000EB26C201B101A60195010E94A62F7B01CD
:101D60008C0169857A858B859C85A40193010E94ED
:101D7000A62F9B01AC01C801B7010E941D2D9B013C
:101D8000AC010E941E2D0E94822D2DE338EF42E20D
:101D900056E40E94A62FAB01BC018EEC93E025E037
:101DA00030E00E94D2278EEC93E063E071E00E9465
:101DB000EB26C401B301A60195010E94A62F7B0169
:101DC0008C0169857A858B859C85A20191010E9491
:101DD000A62F9B01AC01C801B7010E941E2D9B01DB
:101DE000AC010E941E2D7B018C016D857E858F8547
:101DF000988929893A894B895C890E941D2D2D89F2
:101E00003E894F89588D0E941D2D298D3A8D4B8D0D
:101E10005C8D0E941E2D9B01AC01C801B7010E9480
:101E2000A82D2DE338EF42E256E40E94A62FAB0125
:101E3000BC018EEC93E025E030E00E94D2278EECCE
:101E400093E063E071E00E94EB2684EE92E00E9452
:101E500051088EED92E00E9451088EEC93E067E20B
:101E600071E00E94D5278091F9029091FA020196C3
:101E70009093FA028093F9020E94C8222091F10205
:101E80003091F2024091F3025091F4022617370785
:101E90004807590708F070C00E94C8226053784F65
:101EA0008F4F9F4F6093F1027093F2028093F30281
:101EB0009093F402CE01019660E070E00E94A81BAE
:101EC0008EEC93E065E871E00E94EB2649815A812F
:101ED0006B817C818EEC93E02AE030E00E94A526A5
:101EE0008EEC93E068E871E00E94EB266D8D7E8DAC
:101EF0008F8D98A12091F5023091F6024091F70262
:101F00005091F8020E941D2D7B018C016091F90215
:101F10007091FA02882777FD8095982F0E949A2E5B
:101F20009B01AC01C801B7010E94FF2DAB01BC01B0
:101F30008EEC93E022E030E00E94D2278EEC93E01A
:101F400063E071E00E94EB268EEC93E060E070E0CD
:101F50004AE050E00E94CC261092FA021092F90258
:101F60008D8D9E8DAF8DB8A18093F5029093F60272
:101F7000A093F702B093F802A0960FB6F894DEBFD4
:101F80000FBECDBFCF91DF911F910F91FF90EF90CA
:101F9000DF90CF90BF90AF909F908F907F906F9089
:101FA0005F904F903F902F90089581E08093400381
:101FB00060931D0310923E0310923F0308952091F9
:101FC0001C0330E080911B03281B3109C9010895CF
:101FD00040911B0380911C03481718F02FEF3FEF2F
:101FE0000AC0E42FF0E0E550FD4F8081282F30E05B
:101FF0004F5F40931B03C9010895E0911B0380913B
:102000001C03E81718F0EFEFFFEF06C0F0E0E55013
:10201000FD4F8081E82FF0E0CF01089508951092E0
:1020200044031092430388EE93E0A0E0B0E0809375
:10203000450390934603A0934703B09348038CEE67
:1020400091E090934203809341030895CF92DF92F1
:10205000EF92FF920F931F93CF93DF937C016B015D
:102060008A01809140038823A1F0C0E0D0E00DC038
:10207000D701ED91FC91D601AC0FBD1F0190F0810D
:10208000E02DC7016C9109952196C017D10780F307
:1020900004C0CB01642F0E945811C801DF91CF9179
:1020A0001F910F91FF90EF90DF90CF900895DF93F5
:1020B000CF930F92CDB7DEB7FC01698380914003C7
:1020C0008823C9F080913F03803238F081E090E0AE
:1020D0009383828320E030E015C080913E03E82F97
:1020E000F0E0E25EFC4F998190838F5F80933E0326
:1020F00080933F0305C0CE01019661E00E94581114
:1021000021E030E0C9010F90CF91DF9108950F9346
:10211000062F80911D036EE173E040913F0321E0A3
:102120000E94031110923E0310923F03109240034D
:102130000F91089561E00E9487100895413208F0E0
:1021400040E2862F6BEF72E00E94BA1010921B03E0
:1021500080931C03089521E00E949E100895109220
:102160001B0310921C0310923E0310923F030E9427
:1021700004130895382F413210F040E042C080919E
:102180004D038823E1F791E090934D0320934F0393
:102190008FEF8093BA0310927503415040937603FA
:1021A0004F5F90934E0380914E03330F832B8093A8
:1021B0004E0380915003813041F41092500380917E
:1021C0004E038093BB0085EC01C085EE8093BC007C
:1021D00080914D038130E1F380917503841710F4F1
:1021E0004091750320E030E00AC0FB01E20FF31FCD
:1021F000D901AB5ABC4F8C9180832F5F3F4F24177E
:10220000A0F3842F08950F931F93582F122F41325C
:1022100010F081E04AC080914D038823E1F782E00D
:1022200080934D0300934F038FEF8093BA03109276
:10223000750340937603A5E5B3E0FB0102C08191ED
:102240008D938E2F861B8417D0F310924E038091AE
:102250004E03550F852B80934E03809150038130A0
:1022600041F41092500380914E038093BB0085ECA3
:1022700001C085EE8093BC00112321F080914D03B5
:102280008230E1F38091BA038F3F11F480E00DC0FA
:102290008091BA03803211F482E007C08091BA03C2
:1022A000803311F084E001C083E01F910F91089505
:1022B000482F613210F081E0089580914D03843001
:1022C00011F082E0089560939803A7E7B3E0842FAC
:1022D0009C01F90102C081918D938E2F841B86177A
:1022E000D0F380E008951F920F920FB60F92112441
:1022F0002F933F934F935F936F937F938F939F930E
:10230000AF93BF93EF93FF938091B90090E0887FE4
:1023100090708036910509F4F2C081369105CCF5B4
:102320008832910509F47BC089329105B4F480317B
:10233000910509F46FC0813191053CF4009709F4CF
:1023400047C1089709F04FC165C08831910509F46C
:1023500066C0809709F047C182C08034910509F4B6
:10236000A4C08134910544F48033910509F482C0FE
:10237000C89709F038C189C08035910509F489C032
:102380008835910509F496C08834910509F02BC170
:10239000AEC08839910509F413C189399105ECF46F
:1023A0008837910509F4ABC0893791054CF488361C
:1023B000910509F4A4C08037910509F014C19FC0AC
:1023C0008838910509F4FCC08039910509F49DC055
:1023D0008038910509F007C198C0803B910509F448
:1023E000C6C0813B91054CF4803A910509F49FC029
:1023F000883A910509F0F7C0BAC0803C910509F40C
:10240000E3C0883C910509F4DFC0883B910509F0E1
:10241000EAC0C2C080914E038093BB00CFC09091B0
:10242000750380917603981768F490917503E92FEE
:10243000F0E0EB5AFC4F80818093BB009F5F90934C
:102440007503BCC080914F03882309F44BC085ED10
:102450008093BC008091BC0084FDFCCFC2C080E2B0
:102460008093BA0385ED8093BC008091BC0084FD0D
:10247000FCCFB7C080E38093BA0385ED8093BC00A6
:102480008091BC0084FDFCCFACC088E38093BA038C
:102490009BC0809175039091BB00E82FF0E0EB5A50
:1024A000FC4F90838F5F80937503909175038091AB
:1024B000760382C0809175039091BB00E82FF0E015
:1024C000EB5AFC4F90838F5F8093750380914F038D
:1024D000882341F085ED8093BC008091BC0084FD91
:1024E000FCCF7FC081E08093500384EA6EC085ED0D
:1024F0008093BC008091BC0084FDFCCF72C083E05F
:1025000080934D031092B90359C08091B903803272
:1025100008F056C08091B9039091BB00E82FF0E01D
:10252000E756FC4F90838F5F8093B90347C080913B
:10253000B903803230F4E091B903F0E0E756FC4F84
:10254000108285ED8093BC008091BC0084FDFCCF9F
:1025500010924D036091B903E0915303F09154033D
:1025600089E993E070E009951092B9032DC084E0E9
:1025700080934D031092970310929803E0915103BA
:10258000F0915203099580919803882329F481E002
:10259000809398031092770390919703E92FF0E0CE
:1025A000E958FC4F80818093BB009F5F9093970315
:1025B0009091970380919803981710F485EC01C0CF
:1025C00085E88093BC000FC085EC8093BC0009C0F7
:1025D0001092BA0385ED8093BC008091BC0084FD0D
:1025E000FCCF10924D03FF91EF91BF91AF919F915E
:1025F0008F917F916F915F914F913F912F910F90AC
:102600000FBE0F901F90189510924D0381E080939C
:102610004F031092500382E061E00E94212483E086
:1026200061E00E942124E9EBF0E080818E7F8083CD
:1026300080818D7F808388E48093B80085E48093D7
:10264000BC000895EF92FF920F931F93CF93DF93F7
:10265000582F162FE42E022FF32E81E493E0652FDE
:102660000E94D50F81E493E0612F0E945710202F24
:102670003F2DC901EC0110E006C081E493E06991AF
:102680000E9457101F5F1E15C0F381E493E00E9463
:102690009A1090E0882309F491E0892FDF91CF917F
:1026A0001F910F91FF90EF9008952F923F924F92BC
:1026B0005F926F927F928F929F92AF92BF92CF92D2
:1026C000DF92EF92FF920F931F93DF93CF9300D08F
:1026D00000D00F92CDB7DEB7882E6983942E3B834E
:1026E0002A830E94C8225B016C01FF24EE24292C5E
:1026F00033242801662477244BC081E493E0682DBD
:102700000E94D50F81E493E069810E94571081E413
:1027100093E00E949A1081E493E0682D0E94D50F07
:10272000A1014E1951094132510514F040E250E027
:1027300081E493E0682D0E94AB102F2D332727FDF5
:1027400030958A819B81280F391F3D832C8381E43A
:1027500093E00E94DF0F892B09F452C00115110587
:1027600061F00E94C8226A197B098C099D096415D1
:1027700075058605970508F043C081E493E00E9443
:10278000E80FEC81FD818193FD83EC83F394DFCF2F
:10279000E91408F4B2CF01151105C9F00E94C8224E
:1027A0006A197B098C099D09980140E050E0621785
:1027B00073078407950758F02F2D332727FD309591
:1027C000892D90E02817390714F4FF24FA948F2DEF
:1027D0000F900F900F900F900F90CF91DF911F915E
:1027E0000F91FF90EF90DF90CF90BF90AF909F90B0
:1027F0008F907F906F905F904F903F902F900895B3
:10280000892DF0E2F91508F480E2E80EC1CFF999BC
:10281000FECF72BD61BDF89A80B50895F999FECFDB
:102820001FBA72BD61BD40BD0FB6F894FA9AF99A0D
:102830000FBE0895FC018091C001813039F08130D4
:1028400018F0823039F404C082E005C084E003C08F
:1028500088E001C080E180838091C901882319F05C
:102860008081880F80830895CF92DF92FF920F932B
:102870001F93DF93CF9300D0CDB7DEB78C0143E138
:10288000F42E6E010894C11CD11CF8018081918145
:10289000A281B381892F9A2FAB2FBB27A7FDBA95B1
:1028A000898380818A83E091BD01F091BE0180819E
:1028B0006F2D42E096010E9475220C5F1F4FF2E0DF
:1028C000FF0E89E1F81609F70F900F90CF91DF9175
:1028D0001F910F91FF90DF90CF900895DF93CF93DA
:1028E0000F92CDB7DEB7982F8091D801882321F0C1
:1028F000992379F082E00BC08091C101882319F1FE
:10290000992339F08091C7018823D1F481E089832C
:1029100001C01982E091BD01F091BE01A091BB01FF
:10292000B091BC01808151966C9141E09E012F5F76
:102930003F4F0E947522892B31F489818093C70112
:1029400020E030E002C02FEF3FEFC9010F90CF91A0
:10295000DF910895EF92FF920F931F93DF93CF9330
:1029600000D0CDB7DEB7FC018B017A0141155105CE
:1029700089F18091C101882369F1A091BD01B091D5
:10298000BE019B012E0F311D18968D919C911997B8
:1029900082179307F8F0F983EA83E091BB01F09185
:1029A000BC018C91638D42E09E012F5F3F4F0E94DE
:1029B0007522892B79F4E091BD01F091BE01A091BF
:1029C000BB01B091BC01808158966C91402F97015A
:1029D0000E9475220F900F90CF91DF911F910F9160
:1029E000FF90EF9008951F93DF93CF930F92CDB791
:1029F000DEB7182F8091D701811759F1112319F0F3
:102A000080E3898301C019828091C801882319F06D
:102A10008981826089838091D601882319F0898118
:102A200080688983E091BD01F091BE01A091BB0156
:102A3000B091BC01808157966C9141E09E012F5F5F
:102A40003F4F0E947522892B11F08FEF03C0109326
:102A5000D70180E00F90CF91DF911F910895DF9310
:102A6000CF930F92CDB7DEB79C018091C10188232F
:102A7000B1F12C3B310510F081E015C02236310553
:102A800010F082E010C02A32310510F083E00BC054
:102A90002431310510F084E006C02A30310510F0F1
:102AA00085E001C086E089839091C20189819817F1
:102AB000B1F0E091BD01F091BE01A091BB01B091D8
:102AC000BC01808112966C9141E09E012F5F3F4FC7
:102AD0000E947522892B19F489818093C2010F907D
:102AE000CF91DF910895DF93CF930F92CDB7DEB7EB
:102AF000982F8091C101882379F1943031F098307A
:102B000031F0923031F4198206C088E003C080E1D0
:102B100001C088E189838981869586958695909103
:102B2000C0019817C9F0E091BD01F091BE01A091DC
:102B3000BB01B091BC01808117966C9141E09E0170
:102B40002F5F3F4F0E947522892B31F48981869532
:102B5000869586958093C0010F90CF91DF9108955F
:102B6000DF93CF930F92CDB7DEB79C018091C10167
:102B70008823A1F181E0243F380749F083E0283E13
:102B8000380739F02A3F310531F4198206C088E050
:102B900003C080E101C088E189838981869586959B
:102BA00086959091BF019817C9F0E091BD01F09111
:102BB000BE01A091BB01B091BC01808116966C91C1
:102BC00041E09E012F5F3F4F0E947522892B31F417
:102BD00089818695869586958093BF010F90CF91C8
:102BE000DF910895CF92DF92EF92FF921F93DF93D0
:102BF000CF9300D0CDB7DEB77C0116E06E0108940C
:102C0000C11CD11CE091BD01F091BE018081612FFA
:102C100042E096010E946222898190E0A0E0B0E04B
:102C2000BA2FA92F982F88272A8130E040E050E062
:102C3000822B932BA42BB52BF70181939193A19316
:102C4000B1937F011E5F1C30E9F60F900F90CF917A
:102C5000DF911F91FF90EF90DF90CF9008957F92CA
:102C60008F929F92AF92BF92CF92DF92EF92FF929C
:102C70000F931F93DF93CF93CDB7DEB761970FB656
:102C8000F894DEBF0FBECDBFF82EE92E762E198246
:102C90001A82DE011696EAE4F2E08CE001900D92D1
:102CA0008150E1F7DE011396E7E4F2E083E0019062
:102CB0000D928150E1F78E010A5F1F4FC8010E94FB
:102CC000F215E3E0CE2ED12CCC0EDD1E2F2D3E2DA5
:102CD000C9017C0176E0B72EAA24A3944E01089482
:102CE000811C911CF80180819181A281B38180FFB8
:102CF00002C0F601A082F701208131814281538117
:102D0000F1E07F1651F4821B930BA40BB50BF80175
:102D100080839183A283B38305C0F801208331832C
:102D200042835383F80121913191419151918F0157
:102D3000BB2757FDBA95A52F942F832F8983F601C2
:102D400081916F01822B8A83E091BD01F091BE01D8
:102D500080816B2D42E094010E947522F2E0BF0E4B
:102D600084E090E0E80EF91E9CE0B91609F0BACFB5
:102D700061960FB6F894DEBF0FBECDBFCF91DF9145
:102D80001F910F91FF90EF90DF90CF90BF90AF9089
:102D90009F908F907F900895EF92FF920F931F93D3
:102DA000DF93CF9300D0CDB7DEB7FC018B017A0162
:102DB0004115510589F18091C101882369F1A091E4
:102DC000BD01B091BE019B012E0F311D18968D9152
:102DD0009C91199782179307F8F0F983EA83E091A1
:102DE000BB01F091BC018C91638D42E09E012F5F8D
:102DF0003F4F0E947522892B79F4E091BD01F0913B
:102E0000BE01A091BB01B091BC01808158966C912C
:102E1000402F97010E9462220F900F90CF91DF9177
:102E20001F910F91FF90EF900895FF920F931F93C2
:102E3000DF93CF930F92CDB7DEB7F82E8091C80104
:102E40008F1509F48AC0E091BD01F091BE01A091F7
:102E5000BB01B091BC018E010F5F1F4FFF2069F1D4
:102E6000808114966C9141E098010E946222892B26
:102E700009F075C089818F7D8983E091BD01F09152
:102E8000BE01A091BB01B091BC01808114966C91F0
:102E900041E098010E947522892B09F060C063E02F
:102EA00070E080E090E00E942C2382E08983809192
:102EB000D6018823B1F182E831C0808114966C91EB
:102EC00041E098010E946222892B09F048C080915C
:102ED000C101998180FF02C0906201C09F7D9983EA
:102EE000E091BD01F091BE01A091BB01B091BC0188
:102EF000808114966C9141E09E012F5F3F4F0E94AC
:102F00007522892B61F563E070E080E090E00E941B
:102F10002C238091D601882319F080E8898301C091
:102F200019828091D701882319F089818063898370
:102F3000E091BD01F091BE01A091BB01B091BC0137
:102F4000808157966C9141E09E012F5F3F4F0E9418
:102F50007522892B21F4F092C80180E001C08FEF27
:102F60000F90CF91DF911F910F91FF900895FF92E5
:102F70000F931F93DF93CF930F92CDB7DEB7F82E49
:102F8000082F10E0C80180779070892B11F081E044
:102F900005C0FF2011F0198202C080E48983E0910E
:102FA000BD01F091BE01A091BB01B091BC01808137
:102FB00055966C9141E09E012F5F3F4F0E94752214
:102FC000892B59F589818F7B8093C301198206FD76
:102FD00002C084E0898305FD03C089818260898302
:102FE00004FD03C089818160898303FD03C0898159
:102FF00088638983E091BD01F091BE01A091BB017E
:10300000B091BC01808156966C9141E09E012F5F8A
:103010003F4F0E947522892B19F01092C10112C0F6
:10302000FF2031F088E0F81619F080E00E94F314D8
:10303000F092C1011092CA0162E370E080E090E07A
:103040000E942C230F90CF91DF911F910F91FF9041
:1030500008950F931F93DF93CF930F92CDB7DEB7F1
:103060008091C101882309F4FFC01982E091BD015C
:10307000F091BE01A091BB01B091BC01808151963D
:103080006C9141E08E010F5F1F4F98010E947522E5
:10309000892B09F0E9C0E091BD01F091BE01A0913A
:1030A000BB01B091BC01808115966C9141E0980103
:1030B0000E947522892B09F0D7C0E091BD01F091E3
:1030C000BE01A091BB01B091BC01808114966C91AE
:1030D00041E098010E947522892B09F0C5C08091BA
:1030E000D801E091BD01F091BE01A091BB01B0916A
:1030F000BC01882309F45AC08CE08983808114962E
:103100006C9141E098010E947522892B09F0ACC0B6
:1031100062E370E080E090E00E942C2380EC8983E1
:103120008091C10180FF02C080EE8983E091BD01E2
:10313000F091BE01A091BB01B091BC0180811496B9
:103140006C9141E09E012F5F3F4F0E947522892BB9
:1031500009F08AC08091C701882319F082E0898331
:1031600001C01982E091BD01F091BE01A091BB01A7
:10317000B091BC01808151966C9141E08E010F5F4E
:103180001F4F98010E947522892B09F06DC019828A
:10319000E091BD01F091BE01A091BB01B091BC01D5
:1031A000808115966C9141E098015AC084E0898332
:1031B000808114966C9141E098010E947522892BC0
:1031C00009F052C08091C801882321F48091C10187
:1031D00080FD02C080E401C080E68983E091BD01EA
:1031E000F091BE01A091BB01B091BC018081149609
:1031F0006C9141E09E012F5F3F4F0E947522892B09
:1032000099F562E370E080E090E00E942C238091C9
:10321000C701882319F081E0898301C01982E091F8
:10322000BD01F091BE01A091BB01B091BC018081B4
:1032300051966C9141E09E012F5F3F4F0E94752295
:10324000892B91F4E091BD01F091BE01A091BB01E9
:10325000B091BC01808115966C9141E026EC31E083
:103260000E947522892B11F08FEF01C080E00F9032
:10327000CF91DF911F910F9108958F929F92AF92FE
:10328000BF92CF92DF92EF92FF920F931F93DF9343
:10329000CF9300D0CDB7DEB77C014B015A018091AE
:1032A000D801882311F481E065C08091C101882391
:1032B00011F484E05FC0E091BD01F091BE01A091E6
:1032C000BB01B091BC0180811C966C9142E06E0103
:1032D0000894C11CD11C96010E946222892B09F01E
:1032E00048C0998180E02A81022F10E0082B192B19
:1032F0000E151F0520F4F501108285E03BC0A0915A
:10330000BD01B091BE0111968D919C911297969539
:1033100087958017910798F4E091BB01F091BC016B
:103320008C91638941E096010E946222892B09F504
:10333000898184FF04C00E94291883E01BC0E091AA
:10334000BD01F091BE01A091BB01B091BC01808193
:103350001D966C914E2D94010E946222892B49F496
:10336000C801B7010E9494306150F501608380E08C
:1033700001C082E00F900F90CF91DF911F910F91CC
:10338000FF90EF90DF90CF90BF90AF909F908F9085
:1033900008950F931F93982F8091D801882309F5E2
:1033A0008091C1018823E9F0192F1E7F0091C60189
:1033B00081238093C601112321F48091CA018823BF
:1033C00031F081E00E946E14112359F004C080E0B6
:1033D0000E946E1406C00E942918882311F00093E1
:1033E000C6011F910F9108951F93DF93CF9300D0D3
:1033F000CDB7DEB7182F893208F063C08823E9F40F
:1034000080E00E94F314198287E08A83E091BD0175
:10341000F091BE01A091BB01B091BC018081559695
:103420006C9142E09E012F5F3F4F0E947522892BD5
:1034300009F047C01092CA0142C081E00E94F31413
:1034400080E28983113011F41A8204C0163028F406
:1034500081E08A8385E090E00BC0153128F482E09A
:103460008A838AE090E004C083E08A8384E190E06C
:103470000E942F158A818295880F880F807C876033
:103480008A83E091BD01F091BE01A091BB01B09192
:10349000BC01808155966C9142E09E012F5F3F4FA9
:1034A0000E947522892B69F488E08093C1011092F3
:1034B000C30181E08093CA0180E00E94C91980E0C5
:1034C00001C08FEF0F900F90CF91DF911F91089562
:1034D0000F931F93DF93CF930F92CDB7DEB78C017D
:1034E0008091C101882309F44BC08091D8018823C1
:1034F00009F046C08091CA01882359F0C80101979C
:10350000889720F4802F0E94F4193AC080E00E942E
:10351000F4190430110518F464E070E007C0B80134
:1035200083E0093E180710F068EE73E088EE93E040
:103530000E94943061506983E091BD01F091BE0119
:10354000A091BB01B091BC01808111966C9141E0CA
:103550009E012F5F3F4F0E947522892B89F469815C
:1035600070E06F5F7F4F88EE93E00E94A830CB0140
:103570007093C5016093C401969587950E942F159D
:103580000F90CF91DF911F910F910895DF93CF930B
:103590000F92CDB7DEB7982F8091D8018917D9F156
:1035A000992319F18091D9018823A9F180E00E9423
:1035B0006E1480E00E9415178091DA019091DB0172
:1035C0000E94681A1982E091BD01F091BE018081CC
:1035D00063E241E09E012F5F3F4F0E94752281E030
:1035E0008093D8010E946E1414C080E00E946E1473
:1035F0008091C6018983E091BD01F091BE01808177
:1036000063E241E09E012F5F3F4F0E9475221092BE
:10361000D8010E9429180F90CF91DF9108952F9221
:103620003F924F925F926F927F928F929F92AF9252
:10363000BF92CF92DF92EF92FF920F931F93DF938F
:10364000CF93CDB7DEB7A2970FB6F894DEBF0FBE0B
:10365000CDBF4C015B011A0129018091D90188235A
:1036600009F05DC06115710509F459C0EE24FF240D
:1036700083E1C82ED12CCC0EDD1E03E0602E712C10
:103680006C0E7D1E2DC084010E191F09013111051C
:1036900010F000E110E095012E0D3F1D80E090E05C
:1036A00009C0F901E80FF91FE491D601A80FB91F6D
:1036B000EC93019680179107A0F3C701B801A6010A
:1036C0000E94AA14C701B801A3010E94CC16C6012A
:1036D000B301A8010E94CF07009709F5E00EF11E83
:1036E000E814F90480F239822A82E091BD01F09158
:1036F000BE01A091BB01B091BC0180815D966C912F
:1037000042E09E012F5F3F4F0E947522892B39F4C2
:1037100081E08093D9015092DB014092DA01A296B8
:103720000FB6F894DEBF0FBECDBFCF91DF911F91D2
:103730000F91FF90EF90DF90CF90BF90AF909F9050
:103740008F907F906F905F904F903F902F90089553
:10375000AF92BF92CF92DF92EF92FF920F931F939F
:10376000DF93CF9300D0CDB7DEB75C018B018091A2
:10377000C101882309F461C0E091BD01F091BE014F
:10378000A091BB01B091BC01808150966C9142E048
:103790009E012F5F3F4F0E946222892B09F04DC08E
:1037A000E980FA800115110519F0C8010E9455221F
:1037B000C090BD01D090BE017E2D60E02F2D30E085
:1037C000622B732B882777FD8095982F0E949A2E65
:1037D0007B018C01F60166817781882777FD8095D2
:1037E000982F0E949A2E9B01AC01C801B7010E943C
:1037F0001D2D7B018C01F6016481758180E090E0D4
:103800000E94982E9B01AC01C801B7010E94FF2DB8
:1038100020E030E04CE052E40E941E2D20E030E039
:1038200040E857E40E94A62F0E94672EF5016083AE
:1038300071838283938380E001C08FEF0F900F909C
:10384000CF91DF911F910F91FF90EF90DF90CF907C
:10385000BF90AF900895EF92FF920F931F93DF9365
:10386000CF9300D000D000D0CDB7DEB77C018FEF72
:10387000D7018C9380E88983E091BD01F091BE016E
:10388000A091BB01B091BC01808155966C9141E043
:103890008E010F5F1F4F98010E947522892B09F03E
:1038A000AFC064E670E080E090E00E942C231982B3
:1038B000E091BD01F091BE01A091BB01B091BC01AE
:1038C000808155966C9141E098010E947522892B68
:1038D00009F096C0E091BD01F091BE01A091BB013D
:1038E000B091BC01808159966C9146E098010E948C
:1038F0006222892B09F084C08E8190E081709070E3
:10390000880F991F880F991F2C8130E0217030702B
:10391000220F331F982F922B8A818170982BF701E9
:103920009083992349F0913019F49093C90122C0F2
:10393000923009F065C01CC0E091BD01F091BE015C
:10394000A091BB01B091BC01808113966C9141E0C4
:1039500098010E946222892B09F052C089818F70E0
:1039600009F44EC0843021F481E08093C90102C083
:103970001092C9012FEF2093C1012093BF01209322
:10398000C0012093C2018FEF9FEF9093C5018093F8
:10399000C4012093C6012093C80181E08093C30134
:1039A0008093D6011092D7011092CB011092CA01D8
:1039B0008AE0ECECF1E0DF011D928A95E9F71092C4
:1039C000D8011092D9011092DB011092DA0180ED3A
:1039D00097E00E94B01582E00E94731584E690E0A3
:1039E0000E94681A8AE290E00E942F1580E00E94EF
:1039F000C91980E00E941517882311F40E94B71797
:103A000026960FB6F894DEBF0FBECDBFCF91DF91E3
:103A10001F910F91FF90EF9008959093BD038093B5
:103A2000BC0380E008954F925F926F927F928F92D5
:103A30009F92AF92BF92CF92DF92EF92FF920F933D
:103A40001F93DF93CF93CDB7DEB7A0970FB6F8944F
:103A5000DEBF0FBECDBF582E492E962E872EB42E18
:103A6000A52E39016801A701D8011D921C928091F1
:103A7000C40390E08E010F5F1F4FB8010E943D19F3
:103A8000882309F0B4C0E090C003F090C103C701DF
:103A900084719070892B11F410E03AC0F8018B2DDD
:103AA0009A2D9C01B9018E010F5E1F4F208130E0DD
:103AB00040E050E0522F442733272227818190E0B5
:103AC000A0E0B0E0DC0199278827282B392B4A2B6E
:103AD0005B2B838190E0A0E0B0E0282B392B4A2BB0
:103AE0005B2B828190E0A0E0B0E0BA2FA92F982F45
:103AF0008827282B392B4A2B5B2BDB012D933D93F9
:103B00004D935D93BD013496E017F10779F610E10E
:103B1000E6FE23C0212F30E0AE014F5F5F4FFA0178
:103B2000E20FF31F692D782DCB01DC012A5F3F4F97
:103B3000240F351F508140E0818190E0842B952B2C
:103B40008D939D933296E217F307A1F71A5FF60162
:103B500080819181886091838083C7018078917092
:103B6000892B21F1212F30E0AE014F5F5F4FFA0129
:103B7000E20FF31F652D742DCB01DC012A5F3F4F4F
:103B8000240F351F508140E0818190E0842B952BDC
:103B90008D939D933296E217F307A1F71A5FD60132
:103BA0008D919C91119780678D939C93B3E0EB224C
:103BB000FF24EF28B9F0FE013196E10FF11D93814A
:103BC000818180FF0FC0E091BC03F091BD0330976D
:103BD00049F0692F67706F5F9F73892F869586956F
:103BE00086950995F3011082118212821382A096A4
:103BF0000FB6F894DEBF0FBECDBFCF91DF911F91FE
:103C00000F91FF90EF90DF90CF90BF90AF909F907B
:103C10008F907F906F905F904F900895DF93CF9338
:103C2000CDB7DEB729970FB6F894DEBF0FBECDBF74
:103C30009E012F5F3F4F882349F0D901EFE5F2E065
:103C400089E001900D928150E1F708C0D901E6E5C5
:103C5000F2E089E001900D928150E1F788EB94E069
:103C600069E070E0AE014F5F5F4F0E94AA14299691
:103C70000FB6F894DEBF0FBECDBFCF91DF91089590
:103C8000DF93CF9300D0CDB7DEB765E070E00E9440
:103C9000943079836A8388E591E062E070E0AE0158
:103CA0004F5F5F4F0E94AA1480E00F900F90CF915A
:103CB000DF910895DF93CF9300D0CDB7DEB765E0F5
:103CC00070E00E94943079836A838AE591E062E033
:103CD00070E0AE014F5F5F4F0E94AA1480E00F902A
:103CE0000F90CF91DF910895EF92FF920F931F9362
:103CF000DF93CF9300D000D0CDB7DEB77A0100E0DC
:103D000010E028EE33E040E050E00E94DD30C801D2
:103D1000B7010E947530292F33274427552729835F
:103D20009C01552737FD5095452F2A83272F382F83
:103D3000492F552747FD5A952B836C838CE591E0DD
:103D400064E070E0AE014F5F5F4F0E94AA1480E014
:103D50000F900F900F900F90CF91DF911F910F91C7
:103D6000FF90EF900895DF93CF9300D0CDB7DEB7EB
:103D700065E070E00E94943079836A838AED91E077
:103D800062E070E0AE014F5F5F4F0E94AA1480E0D6
:103D90000F900F90CF91DF910895DF93CF9300D0D4
:103DA000CDB7DEB765E070E00E94943079836A8316
:103DB0008EED91E062E070E0AE014F5F5F4F0E94D8
:103DC000AA1480E00F900F90CF91DF910895DF93B8
:103DD000CF930F92CDB7DEB7882311F481E003C0F3
:103DE000853008F084E0815089838FE491E061E0C0
:103DF00070E0AE014F5F5F4F0E94AA1480E00F9009
:103E0000CF91DF910895DF93CF930F92CDB7DEB7B7
:103E10001982282F80FF02C080E3898321FF03C01D
:103E200089818C60898322FF03C0898183608983B3
:103E300088E491E061E070E0AE014F5F5F4F0E9467
:103E4000AA1480E00F90CF91DF9108950F931F93F4
:103E5000DF93CF93CDB7DEB728970FB6F894DEBFC8
:103E60000FBECDBF8C01893C9105F0F488EC90E049
:103E7000B8010E9494306150704079836A8386E172
:103E800092E062E070E0AE014F5F5F4F0E94AA14C3
:103E900081EC9AE06CE070E048E652E00E94AA14DF
:103EA0001093C3030093C20328960FB6F894DEBFA5
:103EB0000FBECDBFCF91DF911F910F910895DF937A
:103EC000CF9300D000D0CDB7DEB7882349F080E291
:103ED000898388E28A8380E38B8388E38C8308C0AC
:103EE00083EA93EAA3EAB3EA89839A83AB83BC8328
:103EF0008EE99AE064E070E0AE014F5F5F4F0E9490
:103F0000AA140E9429180F900F900F900F90CF9134
:103F1000DF910895DF93CF9300D000D0CDB7DEB707
:103F2000882349F080EC898382EC8A8384EC8B833C
:103F300086EC8C8308C08BE89BE8ABE8BBE8898300
:103F40009A83AB83BC8388E99AE064E070E0AE01B9
:103F50004F5F5F4F0E94AA140E9429180F900F9084
:103F60000F900F90CF91DF910895AF92BF92CF92B3
:103F7000DF92EF92FF920F931F93DF93CF9300D0C6
:103F800000D00F92CDB7DEB7A82EBB24C501877035
:103F90009070892B09F4B5C086E06134780708F089
:103FA000B0C080E090E00E94982E20E030E048E42D
:103FB00053E40E94FF2D7B018C01CE0101960E94EB
:103FC0001A1489818430F1F0853020F4823009F0B0
:103FD00098C006C0883041F1803109F092C036C0E7
:103FE000C801B70120E030E040E856E40E94A62F67
:103FF0000E946C2E6B01C801B70120E030E040E464
:1040000056E435C0C801B70120E030E040E056E496
:104010000E94A62F0E946C2E6B01C801B70120E000
:1040200030E040EC55E423C0C801B70120E030E0A7
:1040300040E855E40E94A62F0E946C2E6B01C80137
:10404000B70120E030E040E455E411C0C801B701F9
:1040500020E030E040E055E40E94A62F0E946C2E44
:104060006B01C801B70120E030E040EC54E40E944D
:10407000A62F0E946C2E862FDA82CB827C838D83C2
:10408000A0FE13C08E010E5F1F4F84ED91E062E031
:1040900070E0A8010E94AA140E5F1F4F84E291E015
:1040A00062E070E0A8010E94AA14A1FE13C08E0174
:1040B0000E5F1F4F88ED91E062E070E0A8010E9462
:1040C000AA140E5F1F4F88E291E062E070E0A80141
:1040D0000E94AA14A2FE13C08E010E5F1F4F8CED2A
:1040E00091E062E070E0A8010E94AA140E5F1F4FE9
:1040F0008CE291E062E070E0A8010E94AA1480E0E6
:1041000001C08FEF0F900F900F900F900F90CF91F5
:10411000DF911F910F91FF90EF90DF90CF90BF90B4
:10412000AF900895AF92BF92CF92DF92EF92FF923D
:104130000F931F93DF93CF93CDB7DEB72A970FB6B8
:10414000F894DEBF0FBECDBF8C0182E089838AEC7C
:104150008A8383EE8B8389E08C8388E690E064E039
:1041600070E0AE014F5F5F4F0E94AA1483EA89831B
:10417000F0E4AF2EB12CA022B12206FF06C080ECE5
:104180008A8388EC8B8382EC02C08A838B838C8346
:10419000E0E8EE2EE1E0FE2EE022F122E114F1044F
:1041A00031F084EC8D838CEC8E8386EC03C083EA43
:1041B0008D838E838F8383EA888789878A8787EABE
:1041C0009AE06AE070E0AE014F5F5F4F0E94AA1470
:1041D00073E0C72ED12CC022D122C114D10411F01A
:1041E00080E201C088ED898386EB9AE061E070E0AF
:1041F000AE014F5F5F4F0E94AA1405FF02C081E02D
:1042000001C080E00E940E1EE114F104D9F010FFFD
:1042100008C082EB89838BE88A8386EB8B838BE9EA
:1042200007C080EB898380E88A8384EB8B8380E9F5
:104230008C8382EA9AE064E070E0AE014F5F5F4FEA
:104240000E94AA14AE014F5F5F4F00FF2CC088EFA1
:10425000898380EB98E061E070E00E94AA1487E017
:104260006AEF70E00E94B51F87E00E94031F81E0A3
:104270000E94E71E84E690E00E94CD1E84EF91E04C
:104280000E94B31E69E073EE8AEC92E048EC50E0C5
:104290000E94741E88E290E00E945A1E8AE090E01C
:1042A0000E94401E08C088ED898380EB98E061E0A1
:1042B00070E00E94AA1401FF02C089ED01C088EDE0
:1042C00089838DE397E061E070E0AE014F5F5F4F5F
:1042D0000E94AA1402FF02C081E001C080E00E9497
:1042E0008A1F04FF02C081E001C080E00E945F1FBE
:1042F000C80188609093C1038093C0030E9429186D
:104300001092C403AB2819F086E08093C403EF2811
:1043100029F08091C4038A5F8093C40304711070F4
:10432000012B29F08091C403805F8093C403CD28C2
:1043300029F08091C4038C5F8093C4032A960FB642
:10434000F894DEBF0FBECDBFCF91DF911F910F91CB
:10435000FF90EF90DF90CF90BF90AF900895EF92D5
:10436000FF920F931F93DF93CF9300D000D000D024
:10437000CDB7DEB77C01AC0143705070FA01E35851
:10438000FD4F80818983C70133E0969587953A95E3
:10439000E1F783709070FC01E358FD4F20812A8380
:1043A000D70126E0B695A7952A95E1F7A370B070DE
:1043B000FD01E358FD4F20812B8346585D4FFA01E4
:1043C00020812C8386589D4FFC0180818D83A658C7
:1043D000BD4F8C918E8386E294E063E070E08E01A5
:1043E0000F5F1F4FA8010E94AA148AE294E063E0C5
:1043F00070E0AE014C5F5F4F0E94AA14D801E7E75E
:10440000F2E083E001900D928150E1F7DE01149615
:10441000E4E7F2E083E001900D928150E1F7E2FEE3
:1044200006C08981816089838C8181608C83E5FEEF
:1044300006C08A8181608A838D8181608D83F0FED0
:1044400006C08B8181608B838E8181608E8380E446
:1044500094E063E070E0AE014F5F5F4F0E94AA14EA
:1044600081E394E063E070E0AE014C5F5F4F0E9437
:10447000AA14F092BF03E092BE0326960FB6F894FA
:10448000DEBF0FBECDBFCF91DF911F910F91FF9087
:10449000EF90089586EF9BE065E171E040E054E025
:1044A00028EC30E00E940F1B08950F931F938C019E
:1044B0000E94C822F80160837183828393831F91D5
:1044C0000F9108950F931F930091B9011091BA01B4
:1044D0000E945513882319F42FEF3FEF02C020E00C
:1044E00030E0C9011F910F9108950E942213882383
:1044F00019F42FEF3FEF02C020E030E0C90108952A
:104500001F920F920FB60F9211242F933F938F9308
:104510009F93AF93BF938091C9039091CA03A091D9
:10452000CB03B091CC033091CD030196A11DB11DF9
:10453000232F2D5F2D3720F02D570196A11DB11D82
:104540002093CD038093C9039093CA03A093CB0318
:10455000B093CC038091C5039091C603A091C7038B
:10456000B091C8030196A11DB11D8093C50390931E
:10457000C603A093C703B093C803BF91AF919F91A7
:104580008F913F912F910F900FBE0F901F90189514
:104590008FB7F8942091C9033091CA034091CB039F
:1045A0005091CC038FBFB901CA010895789484B5A6
:1045B000826084BD84B5816084BD85B5826085BD1F
:1045C00085B5816085BDEEE6F0E080818160808305
:1045D000E1E8F0E0108280818260808380818160E8
:1045E0008083E0E8F0E0808181608083E1E9F0E0B1
:1045F000808182608083808181608083E0E9F0E057
:10460000808181608083E1ECF0E080818460808340
:10461000808182608083808181608083E3ECF0E030
:10462000808181608083E0ECF0E080818260808323
:10463000E2ECF0E0808181608083EAE7F0E0808155
:1046400084608083808182608083808181608083B8
:104650008081806880830895EF92FF920F931F936B
:10466000CF93DF937B018C013FB7F8948091C50312
:104670009091C603A091C703B091C80326B5A89B2B
:1046800005C02F3F19F00196A11DB11D3FBFBA2FE4
:10469000A92F982F8827820F911DA11DB11D52E0CF
:1046A000880F991FAA1FBB1F5A95D1F7EC0130C084
:1046B0000E94D92B3FB7F8948091C5039091C6030F
:1046C000A091C703B091C80326B5A89B05C02F3F92
:1046D00019F00196A11DB11D3FBFBA2FA92F982F28
:1046E0008827820F911DA11DB11D32E0880F991FEF
:1046F000AA1FBB1F3A95D1F78C1B9D0B885E934078
:10470000B8F20894E108F10801091109C851DC4F19
:10471000E114F1040105110559F6DF91CF911F91C4
:104720000F91FF90EF900895CF93DF93482F50E0C3
:10473000CA018D5A924FFC0134914B5C524FFA01E1
:104740008491882369F190E0880F991FFC01E55F4F
:10475000F24FA591B491FC01E75EF24FC591D4915F
:10476000662351F42FB7F8948C91932F9095892359
:104770008C93888189230BC0623061F42FB7F89441
:104780008C91932F909589238C938881832B888398
:104790002FBF06C09FB7F8948C91832B8C939FBF3B
:1047A000DF91CF910895883071F1893068F48230BB
:1047B00031F1833020F4813009F042C01DC08330D4
:1047C00089F08430E9F512C08B3059F18C3028F42F
:1047D0008930E9F08A30A1F51EC08C3031F18E307D
:1047E00079F529C0809180008F7703C08091800087
:1047F0008F7D80938000089584B58F7702C084B543
:104800008F7D84BD0895809190008F7707C080913F
:1048100090008F7D03C080919000877F80939000EF
:1048200008958091C0008F7703C08091C0008F7D74
:104830008093C00008958091C200877F8093C2005A
:104840000895FF920F931F93F62E482F50E0CA0150
:104850008F58924FFC012491CA018D5A924FFC014E
:1048600014914B5C524FFA0104910023C9F02223AA
:1048700019F0822F0E94D323E02FF0E0EE0FFF1FEC
:10488000E75EF24FA591B4919FB7F894FF2021F411
:104890008C911095812302C08C91812B8C939FBFAA
:1048A0001F910F91FF9008950895FC01248585853F
:1048B00030E0205C3F4F281B31092F733070C90155
:1048C0000895FC0194858585981719F42FEF3FEF23
:1048D00006C08585E80FF11D8685282F30E0C901C7
:1048E0000895DC011C969C911C971D968C911D9738
:1048F000981719F42FEF3FEF10C01D968C911D975C
:10490000FD01E80FF11D96851D968C911D978F5F17
:104910008F731D968C93292F30E0C9010895109252
:10492000D1031092D00388EE93E0A0E0B0E0809332
:10493000D2039093D303A093D403B093D50384E818
:1049400092E09093CF038093CE0308950F931F932B
:10495000DF93CF930F92CDB7DEB78C01698380913F
:10496000E501882369F083E0BE016F5F7F4F41E07E
:1049700050E00E945F291816190614F49C0107C024
:1049800081E090E0F8019383828320E030E0C90168
:104990000F90CF91DF911F910F91089583E00E94B6
:1049A000362908950F931F93CF93DF938C01FC0159
:1049B0000FC082E00E941C289C01FFEF8F3F9F07E1
:1049C00099F0F8018485E80FF11D2687F801C48766
:1049D0008485C82FD0E02196CF73D070F8018585EB
:1049E00090E0C817D90729F7DF91CF911F910F9158
:1049F0000895FC0180818E5F808380E86BE97DE013
:104A000042E450E00E9435280895FC0181819081A4
:104A1000913A59F4813209F04CC080E06EED71E0BA
:104A200047E050E00E94352842C0913209F041C071
:104A3000803239F48EED91E067E070E00E941E292B
:104A400036C0823209F035C082818093E5018091C1
:104A5000DE019091DF01A091E001B091E101805B66
:104A60009440A040B04019F58091E50180FD12C04E
:104A700087E797E790930108809300082BE088E18F
:104A800090E00FB6F894A895809360000FBE209335
:104A900060000DC088E10FB6F8948093600010921A
:104AA00060000FBEA895109201081092000881E0E6
:104AB000089580E00895CF93DF930E94D62284E288
:104AC00094E00E9441290E943D09C0E0D0E00E948C
:104AD0006B0D2097E1F30E940000F9CFCF92DF9297
:104AE000EF92FF920F931F93CF93DF937C016B01A3
:104AF0008A01C0E0D0E00FC0D6016D916D01D701F1
:104B0000ED91FC910190F081E02DC7010995C80F4E
:104B1000D91F015010400115110571F7CE01DF9129
:104B2000CF911F910F91FF90EF90DF90CF9008955C
:104B3000EF92FF920F931F938C01DC01ED91FC919A
:104B40000190F081E02D6DE009957C01D801ED9197
:104B5000FC910190F081E02DC8016AE009959C016B
:104B60002E0D3F1DC9011F910F91FF90EF900895E9
:104B7000CF93DF93EC016115710519F420E030E06B
:104B80000FC0DB010D900020E9F71197A61BB70BB2
:104B9000E881F9810280F381E02DAD0109959C0146
:104BA000C901DF91CF9108954F925F927F928F92CA
:104BB0009F92AF92BF92CF92DF92EF92FF920F93AC
:104BC0001F93DF93CF93CDB7DEB7A1970FB6F894BD
:104BD000DEBF0FBECDBF2C01742ECB01223008F4F6
:104BE0002AE019A231E2C32ED12CCC0EDD1E822E7A
:104BF0009924AA24BB24672D752FA50194010E9436
:104C0000BB3079018A01C801B701A50194010E9456
:104C10007530472D461B0894C108D1084A3014F45A
:104C2000405D01C0495CF6014083E114F1040105D7
:104C3000110521F07E2C5F2DC801DDCFC201B60128
:104C40000E94B825A1960FB6F894DEBF0FBECDBF67
:104C5000CF91DF911F910F91FF90EF90DF90CF9058
:104C6000BF90AF909F908F907F905F904F900895EE
:104C7000DC012115310541F4ED91FC910190F081A9
:104C8000E02D642F099508950E94D4250895CF92B0
:104C9000DF92EF92FF920F931F936C01E62E9A0121
:104CA000FF2400E010E0B801A7010E9438268C0123
:104CB000C6010E949825080F191FC8011F910F9166
:104CC000FF90EF90DF90CF900895CF92DF92EF9218
:104CD000FF920F931F93CF93DF93EC016A017B0147
:104CE0002115310541F4E881F9810190F081E02D31
:104CF000642F09951FC02A303105D1F477FF17C002
:104D0000E881F9810190F081E02D6DE209958C0137
:104D100044275527BA014C195D096E097F09CE0158
:104D20002AE00E94D4259801280F391F04C02AE0E8
:104D30000E94D4259C01C901DF91CF911F910F9151
:104D4000FF90EF90DF90CF900895EF92FF920F9336
:104D50001F937C010E9465268C01C7010E94982543
:104D60009C01200F311FC9011F910F91FF90EF90FF
:104D70000895EF92FF920F931F937B019A010027F2
:104D8000F7FC0095102FB801A7010E9465261F911E
:104D90000F91FF90EF900895CF92DF92EF92FF92E4
:104DA0000F931F936C017B019A010027F7FC00957C
:104DB000102FB801A7010E9465268C01C6010E9430
:104DC0009825080F191FC8011F910F91FF90EF90B0
:104DD000DF90CF9008950E94B82508957F928F921A
:104DE0009F92AF92BF92CF92DF92EF92FF920F937A
:104DF0001F93CF93DF934C017A018B01722ECB016D
:104E0000BA01A80197010E945A30882321F0C401F9
:104E100069EA71E021C0C0E0D0E057016801E89480
:104E2000D7F8C601B5012FEF3FEF4FE75FE70E94CC
:104E30005A30882351F4C601B5012FEF3FEF4FE7F9
:104E40005FE70E94FB2D181614F0C1E0D0E0219717
:104E500039F0C4016DEA71E00E94B825EC0193C0FD
:104E6000C801B7012FEF3FEF4FE75FE40E949B2F90
:104E7000181654F0C801B7012FEF3FEF4FE75FEC72
:104E80000E94FB2D882324F4C40161EB71E0E4CF80
:104E9000C801B70120E030E040E050E00E94FB2D67
:104EA00087FD03C0C0E0D0E00EC0D401ED91FC91BD
:104EB0000190F081E02DC4016DE20995EC0117FB32
:104EC000109517F9109520E030E040E05FE3DD2415
:104ED0000BC0CA01B90120E030E040E251E40E9479
:104EE000FF2D9B01AC01D394D71498F3C801B701EF
:104EF0000E941E2D5B016C010E946C2E7B018C01B7
:104F0000C401B801A7012AE030E00E943826C80F8A
:104F1000D91F772039F0C40165EB71E00E94B825F4
:104F2000C80FD91FC801B7010E94982E9B01AC0180
:104F3000C601B5010E941D2D24C020E030E040E2F2
:104F400051E40E94A62F7B018C010E94672E5B0119
:104F50006C01CC24B7FCC094DC2CC401B601A501C3
:104F60002AE030E00E946526C80FD91FC601B501AE
:104F70000E949A2E9B01AC01C801B7010E941D2D11
:104F80007A947720D1F6CE01DF91CF911F910F91C6
:104F9000FF90EF90DF90CF90BF90AF909F908F9059
:104FA0007F9008950E94EE260895EF92FF920F934E
:104FB0001F937C010E94B8258C01C7010E9498258F
:104FC000080F191FC8011F910F91FF90EF900895CE
:104FD000282F80911E048823C1F057FF1AC015C0E6
:104FE000289890931D048091F1008193E217F307B4
:104FF000B9F74115510539F08091F200882319F471
:105000008BE68093E800AFBF02C04FEF5FEFCA01AD
:105010000895AFB7F89427702093E9008091F200CB
:10502000282F30E0241735070CF4A901FB019B0160
:10503000240F311D94E6DACFDF93CF930F92CDB7D3
:10504000DEB7BE016F5F7F4F41E050E00E94E8276E
:10505000019719F02FEF3FEF03C08981282F30E02F
:10506000C9010F90CF91DF910895FF920F931F9385
:10507000F82E142F052F4091210450912204212F46
:10508000302FC901DC01FB016EEF29C0F7FE02C021
:10509000949101C0908120911F0430912004241725
:1050A0003507ACF48091E8008570E1F38091E80069
:1050B00082FF03C02FEF3FEF17C09093F100C901AB
:1050C00001968F739070892B11F46093E8002F5F25
:1050D0003F4F3093200420931F041197319610976F
:1050E000A9F6812F902F9C01C9011F910F91FF906C
:1050F00008951F93782FE92F162F20911F043091C8
:105100002004A0912104B09122042A173B07C4F483
:105110008091E8008570E1F38091E80082FD16C07F
:10512000812F90E00196880F991F8093F100C901AB
:1051300001968F739070892B19F48EEF8093E8009D
:105140002F5F3F4F3093200420931F0420911F04B2
:10515000309120042A173B07A4F48091E800857061
:10516000E1F38091E80082FD12C083E08093F100BA
:10517000C90101968F739070892B19F48EEF80937B
:10518000E8002F5F3F4F3093200420931F0440918D
:105190001F0450912004872F9E2FFC0170E06EEFBA
:1051A00043C094914A175B07A4F48091E80085708E
:1051B000E1F38091E80082FF02C020E00DC09093EF
:1051C000F100CA0101968F739070892B11F46093DE
:1051D000E8004F5F5F4F21E04A175B07A4F480911E
:1051E000E8008570E1F38091E80082FF02C080E072
:1051F0000DC01092F100CA0101968F739070892B37
:1052000011F46093E8004F5F5F4F81E0319690E0CA
:1052100030E082239323892B31F450932004409370
:105220001F0480E009C07F5F711708F4BACF509364
:10523000200440931F0481E01F9108959C018091F8
:10524000E80082FFFCCFF901260F311D03C08091D9
:10525000F1008193E217F307D1F7289884E6809351
:105260001D048BEF8093E800CB0108958093E90043
:105270008091F200882319F08AE38093E800089572
:10528000089510921E0481E08093D70080EA8093F5
:10529000D80082E189BD09B400FEFDCF61E070E075
:1052A00080E090E00E942C2380E98093D8008CE07D
:1052B0008093E2001092E000559A209A08955F9240
:1052C0006F927F928F929F92AF92BF92CF92DF9216
:1052D000EF92FF920F931F93CF93DF93E82E842ECC
:1052E000752E80911E04882371F18B01242F352F98
:1052F000C901EC01AAEFFA2EF7E09F2E9E20E0E410
:105300005E2E8E2D90E070E2A72EB12CA822B9223D
:105310006AE3662E50E4C52ED12CC822D92258C08B
:105320009FB7F8949092E9008091E80085FD02C053
:1053300020E004C08091F200252D281B9FBF22236E
:1053400061F4FA9419F42FEF3FEF4DC061E070E083
:1053500080E090E00E942C233BC0822F90E0C81791
:10536000D9070CF42C2FC21BD1094FB7F894909297
:10537000E900A114B10421F406C01092F1002150FB
:105380002223D9F719C0E7FC03C0F801922F10C0FF
:10539000C801322F06C0FC010196E491E093F100B0
:1053A00031503323C1F706C081918093F1009150B1
:1053B0009923D1F7020F111D8091E80085FF05C0E8
:1053C000209729F4C114D10411F06092E8004FBF76
:1053D000209709F0A5CF5D9884E680931C04282DC2
:1053E000372DC9019C01C901DF91CF911F910F9108
:1053F000FF90EF90DF90CF90BF90AF909F908F90F5
:105400007F906F905F9008951F920F920FB60F924A
:1054100011242F933F934F935F936F937F938F93B9
:105420009F93AF93BF93EF93FF938091E10010920E
:10543000E100982F83FF0FC01092E90081E0809374
:10544000EB001092EC0082E38093ED0010921E04BA
:1054500088E08093F00092FF34C083E08093E900FD
:105460008091F200882319F08AE38093E8008FB7D7
:10547000F89492E09093E9009091F2008FBF992305
:1054800021F08EEC93E00E94D22480911C048823AA
:1054900051F080911C04815080931C0480911C0465
:1054A000882309F45D9A80911D04882351F080912E
:1054B0001D04815080931D0480911D04882309F4EC
:1054C000289AFF91EF91BF91AF919F918F917F911A
:1054D0006F915F914F913F912F910F900FBE0F9061
:1054E0001F9018950F931F93DF93CF930F92CDB713
:1054F000DEB719828E010F5F1F4FC8010E94F92489
:10550000C8010E94112D898190E00F90CF91DF9109
:105510001F910F9108951F920F920FB60F921124B1
:10552000EF92FF921F932F933F934F935F936F934D
:105530007F938F939F93AF93BF93EF93FF93DF93EB
:10554000CF93CDB7DEB76197DEBFCDBF1092E90034
:105550008091E80083FF14C1FE0131969E01275F10
:105560003F4F03C08091F1008193E217F307D1F719
:10557000289884E680931D0482EF8093E800998147
:1055800097FF05C08091E80080FFFCCF03C08EEF3D
:105590008093E800292F30E0C90180769070892B34
:1055A00009F0C7C08A81882329F41092F100109273
:1055B000F100DBC0813009F4D8C0833009F4D5C0D4
:1055C000853049F48091E80080FFFCCF8B818068B2
:1055D0008093E300CAC0863009F081C01C81EF804F
:1055E000F8841230C1F51092E90010922004109254
:1055F0001F0410922204109221040E94722A99E042
:10560000FE013996DF01292F1D922A95E9F7998726
:105610001A8791E09E8790E8988B9AEF998B20915A
:105620001F0430912004275F3F4F3C872B878D87D5
:105630001092E9001092200410921F04F0922204AC
:10564000E092210480E0BF0149E050E00E9435284B
:105650000E94722A8AC01092E900109220041092CF
:105660001F04F0922204E0922104123241F482E2FB
:1056700090E00E94092D892B09F47BC076C011307F
:1056800079F488E0E816F10419F481E080932304AA
:1056900080912304882309F070C0E8EFFDE018C072
:1056A000133009F066C08B81882319F4EDEDFDE01D
:1056B0000FC0823021F481EE9DE06AE006C08130A7
:1056C00009F057C08CEE9DE06BE00E9479284BC03A
:1056D000449180E8BF0150E00E94352846C08730E1
:1056E00009F447C0883021F481E08093F1003DC087
:1056F0008930D9F523703070232BD9F5EDE1FEE028
:1057000091E031E026E39093E9003093EB0084913F
:105710008093EC002093ED009F5F3196953099F7D0
:105720008EE78093EA001092EA008B8180931E043A
:105730001CC08F8198851092E9001092200410926D
:105740001F0490932204809321048D81882329F4DF
:10575000CE0101960E94052506C0823051F4CE018B
:1057600001960E94DA2B882321F08EEF8093E800C7
:1057700007C081E28093EB0003C0EAE0FEE0A8CF1F
:105780006196DEBFCDBFCF91DF91FF91EF91BF91C9
:10579000AF919F918F917F916F915F914F913F91C9
:1057A0002F911F91FF90EF900F900FBE0F901F90C1
:1057B00018950895FC0191818081813A31F49130EE
:1057C00089F080E0933089F40DC0813269F49B3018
:1057D00021F482818093E60105C09A3029F4828108
:1057E0008093E70181E0089580E00895EF92FF92B1
:1057F0000F931F938C01E62EDC01ED91FC91048048
:10580000F581E02D0995F82ED801ED91FC910680E7
:10581000F781E02DC8016E2D09958F2D90E01F9125
:105820000F91FF90EF900895109225041092290493
:105830001092280486E992E090932704809326042E
:105840000895EF92FF920F931F93DF93CF930F92E0
:10585000CDB7DEB789838B017A0184E0BE016F5F2B
:105860007F4F41E050E00E945F2984E4B801A70126
:105870000E945F290F90CF91DF911F910F91FF90B0
:10588000EF90089582E048E050E00E94212C0895B6
:10589000FC011682178210861186128613861482E6
:1058A0003496BF010E94422C0895DC01683810F044
:1058B000685829C0E62FF0E067FF13C0E058F040B9
:1058C00081E090E002C0880F991FEA95E2F7809589
:1058D00014962C911497282314962C93149760E017
:1058E00012C0EF53F14F6491662319F420E030E0C9
:1058F0001DC067FF08C014968C9114978D7F149675
:105900008C9314976F77FD0190E0662321F08681D8
:10591000861709F416829F5F31969630B1F7CD0154
:105920001496BD010E94422C21E030E0C901089587
:10593000CF93DF93DC01683810F0685825C0E62F5C
:10594000F0E067FF12C0E058F04081E090E002C054
:10595000880F991FEA95E2F714962C911497282B3B
:1059600014962C93149760E00FC0EF53F14F64919D
:105970006623D9F167FF08C014968C911497826052
:1059800014968C9314976F7716968C9116978617AA
:10599000A9F117968C911797861781F118968C911B
:1059A0001897861759F119968C911997861731F126
:1059B0001A968C911A97861709F11B968C911B9752
:1059C0008617E1F0ED01E0E0F0E09E2F8E81882364
:1059D00021F4EA0FFB1F668306C09F5F3196219674
:1059E000E630F10591F7963049F481E090E01396A6
:1059F0009C938E93129720E030E007C0CD0114965F
:105A0000BD010E94422C21E030E0C901DF91CF911D
:105A1000089580E861E27EE047E850E00E94352882
:105A20000895FC0180818F5F808380E868EA7EE0D2
:105A300049E150E00E94352808955058BB27AA2715
:105A40000ED03FC230D230F035D220F031F49F3F3B
:105A500011F41EF4EFC10EF4E095E7FBE5C1E92F68
:105A600041D280F3BA17620773078407950718F0CD
:105A700071F49EF559C20EF4E0950B2EBA2FA02DAD
:105A80000B01B90190010C01CA01A0011124FF27EB
:105A9000591B99F0593F50F4503E68F11A16F040E6
:105AA000A22F232F342F4427585FF3CF46953795E5
:105AB0002795A795F0405395C9F77EF41F16BA0BAA
:105AC000620B730B840BBAF09150A1F0FF0FBB1F58
:105AD000661F771F881FC2F70EC0BA0F621F731FA1
