:100000000C94A5070C94CD070C94CD070C94CD0748
:100010000C94CD070C94CD070C94CD070C94DC0701
:100020000C94CD070C94CD070C9461310C94E831FD
:100030000C94CD070C94CD070C94CD070C94CD07F0
:100040000C94CD070C94CD070C94CD070C94CD07E0
:100050000C94CD070C94CD070C94CD070C943F283D
:100060000C94CD070C94CD070C94CD070C94CD07C0
:100070000C94CD070C94CD070C94CD070C94CD07B0
:100080000C94CD070C94CD070C94CD070C94CD07A0
:100090000C9445170C94CD070C94CD070C94CD0708
:1000A0000C94CD070C94CD070C94CD07036EDB3672
:1000B0003D9A9999993DABAAAA2A3E000000803F3B
:1000C000084AD73B3BCE016E84BCBFFDC12F3D6CBF
:1000D00074319ABD56833DDA3D00C77F11BED9E425
:1000E000BB4C3E916BAAAABE000000803F072C7A51
:1000F000A5BA6CC590DA3B9365FC8BBC53F810FD38
:100100003C5692834DBD879D3AB63DCBC9BF5BBE81
:1001100073DA0FC93F0000700000000024000000E7
:10012000020003000000650054FFEF0000FA8000A9
:100130000B12820001030C30C30E8C8CE914D540E5
:100140000213710F8E3883F8833000F883258EF800
:10015000833000F883FFFFFFFF0FFEA9D6240004C1
:10016000001A8279A10000003CFFFF00000010008F
:100170000038836FA2003E03304000000002CAE353
:10018000093E800000200000000000000040000048
:100190000060000000000C0000000C186E0000065B
:1001A000920A16C0DFFFFF0256FD8CD377FFE1C431
:1001B00096E0C5BEAA00000000FFFF0B2B00001652
:1001C00057000003594000000000001DFA00026CB7
:1001D0001D000000003FFFDFEB003EB3B6000D2224
:1001E0007800002F3C00000000001942B5000039E3
:1001F000A20000B365D90E9FC91DCF4C343000005A
:1002000000500000003BB67AE80064000000C8001F
:100210000000000000100000001000FA9210002200
:100220005E000D229F0001000000320000FF46002A
:100230000063D400001000000004D6000004CC00CD
:100240000004CC000000001072000000400000001C
:10025000000000000000060002000500070000008A
:100260000000640000000000000000000500050020
:1002700064002000000000000000000000000040BA
:10028000000000030000000032F8980000FF650045
:1002900000830F0000FF9BFC000000000000000036
:1002A000000000000000000000000000000000004E
:1002B000000000000000000000000000000000003E
:1002C000000000100040000000000000060000B226
:1002D0006A000200000001FB830068000000D9FCF6
:1002E000007CF1FF83000000000065000000640353
:1002F000E800640028000000250000000016A000AF
:10030000000000100000001000002F00000000019D
:10031000F40000100000280000FFFF4581FFFFFAF5
:10032000720000000000000000004400050005BA53
:10033000C6004778A200000001000000000000068F
:1003400000000000140000254D002F706D00000516
:10035000AE000C02D0000000000000000000000011
:100360000000000000001B00000000000000000072
:100370000000000000006400000008000000000011
:10038000000000000000000000000000000000006D
:10039000000000000000000000000000000000005D
:1003A000000000000000000000000000000000004D
:1003B000000000000000000000000000000000003D
:1003C000000000000000000000000000000000002D
:1003D0000000000000001B00000000000000000002
:1003E00000000E000E00000AC7000400000000001C
:1003F00032FFFFFF9C00000B2B00000002000000FA
:100400000100000064FFE5000000000000000000A3
:1004100000000000000000000100000000000100DA
:100420000000000000000180000001800000018049
:1004300000002426D3000000000000000000060099
:10044000100096003C0000000000000000000000CA
:1004500000000000000C0A4E68CDCF7709501667E7
:1004600059C619CE82000000000000000000000004
:100470000000000000000000000000000017D7840A
:1004800000030000000000000000000000C7938F80
:100490009D1E1B1C19000000000000000000000051
:1004A000000000000000000000000000000203182F
:1004B0008500004000000000030000000300000071
:1004C00000000000004000000000000000000000EC
:1004D000000000000000000000000000000000001C
:1004E000000000000000000000000000000000000C
:1004F000000000000000000000677DDF7E72902E8B
:10050000554CF6E6880000000000000000000000E6
:100510000000000000D8DCB4B8B0D8B9ABF3F8FAEA
:10052000B3B7BB8E9EAEF132F51BF1B4B8B0809775
:10053000F1A9DFDFDFAADFDFDFF2AAC5CDC7A90C93
:10054000C92C97F1A989264666B28999A92D557DAE
:10055000B0B08AA896365676F1BAA3B4B280C0B8C5
:10056000A89711B28398BAA3F0240844106418B273
:10057000B9B49883F1A329557DBAB5B1A38393F09B
:10058000002850F5B2B6AA839328547CF1B9A3820F
:100590009361BAA2DADEDFDB819AB9AEF5606870EA
:1005A000F1DABAA2DFD9BAA2FAB9A38292DB31BAE0
:1005B000A2D9BAA2F8DF85A4D0C1BBAD83C2C5C79A
:1005C000B8A2DFDFDFBAA0DFDFDFD8D8F1B8AAB387
:1005D0008DB4980D355DB2B6BAAF8C96198F9FA7C2
:1005E0000E161EB49AB8AA872C547CBAA4B08AB648
:1005F00091325676B28494A4C808CDD8B8B4B0F17C
:100600009982A82D557D98A80E161EA22C547C9276
:10061000A4F02C5078F184A898C4CDFCD80DDBA8A8
:10062000FC2DF3D9BAA6F8DABAA6DED8BAB2B686E5
:1006300096A6D0F3C841DAA6C8F8D8B0B4B882A854
:1006400092F52C548898F135D9F418D8F1A2D0F845
:10065000F9A884D9C7DFF8F883C5DADF69DF83C179
:10066000D8F40114F1A8824EA884F311D182F5D9EF
:1006700092289788F109F41C1CD884A8F3C0F9D1FA
:10068000D99782F129F40DD8F3F9F9D1D982F4C2BE
:1006900003D8DEDF1AD8F1A2FAF9A88498D9C7DF07
:1006A000F8F8F883C7DADF69DFF883C3D8F40114F8
:1006B000F198A8822EA884F311D182F5D99250978F
:1006C00088F109F41CD884A8F3C0F8F9D1D997822D
:1006D000F149F40DD8F3F9F9D1D982F4C403D8DE85
:1006E000DFD8F1AD8898CCA809F9D98292A8F57C19
:1006F000F1883ACF944A6E98DB6931DAADF2DEF9CF
:10070000D88795A8F221D1DAA5F9F417D9F1AE8EE0
:10071000D0C0C3AE82C684C3A88595C8A588F2C0E0
:10072000F1F4010EF18E9EA8C63E56F554F1887282
:10073000F40115F19845856EF58E9E0488F1429876
:100740005A8E9E068869F4011CF1981E1108D0F596
:1007500004F11E970202983625DBF9D985A5F3C16D
:10076000DA85A5F3DFD88595A8F309DAA5FAD8824A
:1007700092A8F578F1881A849F26889821DAF41DCA
:10078000F3D8879F39D1AFD9DFDFFBF9F40CF3D869
:10079000FAD0F8DAF9F9D0DFD9F9D8F40BD8F38721
:1007A0009F39D1AFD9DFDFF41DF3D8FAFCA869F97E
:1007B000F9AFD0DADEFAD9F88F9FA8F1CCF398DB45
:1007C00045D9AFDFD0F8D8F18F9FA8CAF38809DAEE
:1007D000AF8FCBF8D8F2AD978D0CD9A5DFF9BAA6BB
:1007E000F3FAF412F2D8950DD1D9BAA6F3FADAA534
:1007F000F2C1BAA6F3DFD8F1BAB2B68696A6D0CACD
:10080000F349DAA6CBF8D8B0B4B8D8AD84F2C0DFDB
:10081000F18FCBC3A8B2B68696C8C1CBC3F3B0B430
:100820008898A821DB718D9D71859521D9ADF2FA4B
:10083000D88597A828D9F408D8F28D29DAF405D9F3
:10084000F285A4C2F2D8A88D9401D1D9F411F2D8BE
:100850008721D8F40AD8F28498A8C801D1D9F41114
:10086000D8F3A4C8BBAFD0F2DEF8F8F8F8F8F8F87F
:10087000F8D8F1B8F6B5B9B08A95A3DE3CA3D9F89B
:10088000D85CA3D9F8D87CA3D9F8D8F8F9D1A5D9E0
:10089000DFDAFAD8B18530F7D9DED8F830ADDADE54
:1008A000D8F2B48C99A32D557DA083DFDFDFB591FD
:1008B000A0F629D9FBD8A0FC29D9FAD8A0D051D9C3
:1008C000F8D8FC51D9F9D879D9FBD8A0D0FC79D97E
:1008D000FAD8A1F9F9F9F9F9A0DADFDFDFD8A1F840
:1008E000F8F8F8F8ACDEF8ADDE8393AC2C547CF16C
:1008F000A8DFDFDFF69D2CDAA0DFD9FADB2DF8D8F0
:10090000A850DAA0D0DED9D0F8F8F8DB55F8D8A88E
:1009100078DAA0D0DFD9D0FAF8F8F8F8DB7DF8D88B
:100920009CA88CF530DB38D9D0DEDFA0D0DEDFD854
:10093000A848DB58D9DFD0DEA0DFD0DED8A868DB3E
:1009400070D9DFDFA0DFDFD8F1A888902C547C9825
:10095000A8D05C38D1DAF2AE8CDFF9D8B087A8C164
:10096000C1B188A8C6F9F9DA36D8A8F9DA36D8A814
:10097000F9DA36D8A8F9DA36D8A8F9DA36D8F78D00
:100980009DADF818DAF2AEDFD8F7ADFA30D9A4DEB3
:10099000F9D8F2AEDEFAF983A7D9C3C5C7F1889BAF
:1009A000A77AADF7DEDFA4F8849408A797F300AE2A
:1009B000F29819A488C6A39488F632DFF28393DBF9
:1009C00009D9F2AADFD8D8AEF8F9D1DAF3A4DEA7B4
:1009D000F1889B7AD8F38494AE19F9DAAAF1DFD8BA
:1009E000A881C0C3C5C7A39283F628ADDED9F8D8C5
:1009F000A350ADD9F8D8A378ADD9F8D8F8F9D1A1DA
:100A0000DADEC3C5C7D8A18194F818F2B089ACC3A7
:100A1000C5C7F1D8B8B4B09786A8319B069907AB83
:100A20009728889BF00C201440B0B4B8F0A88A9A9C
:100A3000285078B79BA829517924705944693864A3
:100A40004831F1BBAB88002C547CF0B38BB8A804C0
:100A5000285078F1B088B49726A85998BBABB38BCF
:100A600002264666B0B8F08A9CA82951798B295194
:100A7000798A2470598B2058718A4469388B39409F
:100A8000688A6448318B30496088F1AC002C547C12
:100A9000F08CA804285078F1889726A85998AC8C37
:100AA00002264666F0899CA8295179247059446928
:100AB00038644831A98809205970AB11384069A8B9
:100AC000193148608CA83C415C207C00F187981962
:100AD00086A86E767EA999882D557DD8B1B5B9A323
:100AE000DFDFDFAED0DFAAD0DEF2ABF8F9D9B08716
:100AF000C4AAF1DFDFBBAFDFDFB9D8B1F1A3978EB6
:100B000060DFB084F2C8F8F9D9DED89385F14AB134
:100B100083A308B5839A0810B79F10D8F1B0BAAE76
:100B2000B08AC2B2B68E9EF1FBD9F41DD8F9D90CA9
:100B3000F1D8F8F8AD61D9AEFBD8F40CF1D8F8F8DB
:100B4000AD19D9AEFBDFD8F416F1D8F8AD8D61D967
:100B5000F4F4ACF59C9C8DDF2BBAB6AEFAF8F40B2E
:100B6000D8F1AED0F8AD51DAAEFAF8F1D8B9B1B6E5
:100B7000A3839C08B9B1839AB5AAC0FD3083B79FFF
:100B800010B58B93F20202D1ABDADED8F1B080BAA5
:100B9000ABC0C3B284C1C3D8B1B9F38BA391B609BA
:100BA000B4D9ABDEB0879CB9A3DDF1B38B8B8B8B53
:100BB0008BB087A3A3A3A3B28BB69BF2A3A3A3A3DB
:100BC000A3A3A3A3A3A3F1B087B59AA3F39BA3A365
:100BD000DCBAACDFB9A3A3A3A3A3A3A3A3A3A3A33A
:100BE000A3A3A3A3A3D8D8D8BBB3B7F1AAF9DAFFBC
:100BF000D9809AAA28B48098A720B79787A8668832
:100C0000F07951F1902C870CA781976293F0717164
:100C10006085940129517990A5F1284C6C870C9539
:100C2000188578A38390284C6C886CD8F3A2820036
:100C3000F210A8921980A2F2D926D8F188A84DD92D
:100C400048D896A83980D93CD89580A839A68698E6
:100C5000D92CDA87A72CD8A8899519A980D938D892
:100C6000A88939A980DA3CD8A82EA83990D90CD8FF
:100C7000A8953198D90CD8A809D9FFD801DAFFD89E
:100C80009539A9DA26FFD890A80D8999A8108098DF
:100C900021DA2ED88999A83180DA2ED8A886963103
:100CA00080DA2ED8A8873180DA2ED8A88292F34134
:100CB00080F1D92ED8A882F31980F1D92ED882AC30
:100CC000F3C0A28022F1A62EA72EA92298A829DA85
:100CD000ACDEFFD8A2F22AF1A92E8292A8F23180CE
:100CE000A696F1D900AC8C9C0C30ACDED0DEFFD8DF
:100CF0008C9CACD010ACDE8092A2F24C82A8F1CADF
:100D0000F235F19688A6D900D8F1FF000000002442
:100D10000027002A002D00300000000000250028D8
:100D2000002B002E003100000000002300260029C7
:100D3000002C002F00040404040403040502020232
:100D40000204030202020206060606060604040264
:100D5000020204040802011040804010204080403C
:100D60008008020401804020100201108010204001
:100D7000400000000200080E0000030401000B0008
:100D8000000000000000000000000000000000075C
:100D90000605040100080A0B0C0D09080B000202ED
:100DA00002010009040000010202000005240010F5
:100DB000010524010101042402060524060001079F
:100DC00005810310004009040100020A0000000729
:100DD00005020240000007058302400000050109EA
:100DE00002A1010901A100850105091901290315C5
:100DF00000250195037501810295017505810305A3
:100E0000010930093109381581257F75089503815D
:100E100006C0C005010906A1018502050719E029E0
:100E2000E715002501750195088102950175088176
:100E300003950675081500256505071900296581C4
:100E400000C005010904A10185040901A1000501F3
:100E500009300931093216008026FF7F751095038D
:100E60008182C0C0090402000103000000092101C1
:100E700001000122870007058403400001000000F3
:100E800000000000002A2B280000000000000000E5
:100E9000000000000000000000000000002C9EB4D4
:100EA000A0A1A2A434A6A7A5AE362D3738271E1FB1
:100EB00020212223242526B333B62EB7B89F84855C
:100EC000868788898A8B8C8D8E8F9091929394954A
:100ED000969798999A9B9C9D2F3130A3AD35040528
:100EE000060708090A0B0C0D0E0F1011121314152A
:100EF000161718191A1B1C1DAFB1B0B50004030951
:100F0000044544547261636B6572320041726475CA
:100F1000696E6F204C4C430012010002000000403B
:100F2000412336800001010200011201000202008B
:100F300000404123368000010102000100C1808190
:100F4000C100E1157E2A842B9D3011241FBECFEFF6
:100F5000DAE0DEBFCDBF12E0A0E0B1E0E4E3FEE600
:100F600002C005900D92A03CB107D9F714E0A0ECA7
:100F7000B2E001C01D92AC36B107E1F71FE0CAE450
:100F8000DFE004C02297FE010E941437C234D1076B
:100F9000C9F70E94B22C0C9418370C940000FB0186
:100FA000DC0104C08D910190801921F44150504022
:100FB000C8F7881B990B08951F920F920FB60F92D6
:100FC00011248F9381E0809332038F910F900FBE95
:100FD0000F901F9018950895EF92FF920F931F9313
:100FE00007E014E0C80160E071E00E94352EC801FE
:100FF0006091E5024AE050E00E949E2D83E0E82ED9
:1010000081E0F82EC801B7010E94352E4091C7013A
:101010005091C8016091C9017091CA01C80122E0D4
:1010200030E00E941C2FC801B7010E94352E40916C
:10103000CB015091CC016091CD017091CE01C801DE
:1010400022E030E00E941F2F1F910F91FF90EF9040
:1010500008950F931F9307E014E0C80165E071E065
:101060000E94352EC8016091CC024AE050E00E94F7
:10107000B02D1F910F9108958091E502882381F191
:101080006091C7017091C8018091C9019091CA0116
:1010900020E030E040E850E40E94C0350E948134F6
:1010A0009B01AC0184E393E06FE170E0422F0E946A
:1010B0009B156091CB017091CC018091CD019091F5
:1010C000CE0120E030E040E850E40E94C0350E94AC
:1010D00081349B01AC0184E393E060E270E02FC0B7
:1010E0006091C7017091C8018091C9019091CA01B6
:1010F00020E030E040E850E40E94C0350E94813496
:101100009B01AC0184E393E06DE170E0422F0E940B
:101110009B156091CB017091CC018091CD01909194
:10112000CE0120E030E040E850E40E94C0350E944B
:1011300081349B01AC0184E393E06EE170E0422FC7
:101140000E949B150895CF92DF92EF92FF920F932A
:101150001F937C016B0104E313E0BC016F5F7F4FC1
:101160004D2D552747FD5A95C8010E949B15C80172
:10117000B7014C2D0E949B151F910F91FF90EF908E
:10118000DF90CF900895AF92BF92CF92DF92EF920F
:10119000FF920F931F938091E502882309F47AC090
:1011A00084E393E06FE170E00E94941590E0A0E08A
:1011B000B0E0BC01CD010E94B23420E030E040E854
:1011C0005EE30E94C0356093C7017093C8018093AD
:1011D000C9019093CA0184E393E060E270E00E9449
:1011E000941590E0A0E0B0E0BC01CD010E94B234C3
:1011F00020E030E040E85EE30E94C0355B016C0116
:101200006093CB017093CC018093CD019093CE017C
:10121000E090C701F090C8010091C9011091CA0186
:10122000C801B70120E030E040E050E00E941534F2
:10123000882351F0C801B70120E030E040E752E4D4
:101240000E94B535181664F480E090E0A0E6B1E4A1
:101250008093C7019093C801A093C901B093CA01BC
:10126000C601B50120E030E040E050E00E941534B6
:10127000882359F0C601B50120E030E040E752E490
:101280000E94B53518160CF085C080E090E0A0E60D
:10129000B1E478C084E393E06DE170E00E949415BE
:1012A00090E0A0E0B0E0BC01CD010E94B23420E0AB
:1012B00030E040E85EE30E94C0356093C701709360
:1012C000C8018093C9019093CA0184E393E06EE161
:1012D00070E00E94941590E0A0E0B0E0BC01CD0168
:1012E0000E94B23420E030E040E85EE30E94C03566
:1012F0005B016C016093CB017093CC018093CD01B5
:101300009093CE01E090C701F090C8010091C9010F
:101310001091CA01C801B70120E030E040E050E080
:101320000E941534882351F0C801B70120E030E055
:1013300040E752E40E94B535181664F480E090E06E
:10134000A0EAB0E48093C7019093C801A093C901BB
:10135000B093CA01C601B50120E030E040E050E0A2
:101360000E941534882351F0C601B50120E030E019
:1013700040E752E40E94B535181664F480E090E02E
:10138000A0EAB0E48093CB019093CC01A093CD016F
:10139000B093CE011F910F91FF90EF90DF90CF900F
:1013A000BF90AF9008952F923F924F925F926F92AD
:1013B0007F928F929F92AF92BF92CF92DF92EF92E5
:1013C000FF920F931F931C0174E3472E73E0572E77
:1013D000BC016D5F7F4FC2010E949415E82EB101E0
:1013E0006E5F7F4FC2010E949415A82EB1016F5FFE
:1013F0007F4FC2010E949415682EC201B1010E9464
:101400009415FF2400E010E01E2D0027FF24EE2499
:10141000BB24CC24DD246501BB24AA24EA28FB28B4
:101420000C291D2990E0A0E0B0E0E82AF92A0A2B57
:101430001B2B772488249924982C872C762C6624BF
:10144000E628F72808291929B701C8011F910F912B
:10145000FF90EF90DF90CF90BF90AF909F908F90D4
:101460007F906F905F904F903F902F900895DF9204
:10147000EF92FF920F931F937C0104E313E0BC01F2
:101480006F5F7F4FC8010E949415D82EC801B70125
:101490000E9494155D2D40E0282F30E0242B352B41
:1014A000C9011F910F91FF90EF90DF900895CF92A7
:1014B000DF92EF92FF920F931F939C017B0107E055
:1014C00014E0C801B9010E94352EF7014081518115
:1014D00062817381C8012AE030E00E94CE2DE8E0ED
:1014E000CE2EE1E0DE2EC801B6010E94352EF701B6
:1014F0004481558166817781C8012AE030E00E94ED
:10150000CE2DC801B6010E94352EF70140855185C8
:1015100062857385C8012AE030E00E940E2E1F917B
:101520000F91FF90EF90DF90CF9008950F931F934E
:10153000CF93DF938C01C0E0D0E0F801EC0FFD1FEA
:101540006081718187E094E04AE050E00E94222EA1
:1015500087E094E063E071E00E94352E2296C63069
:10156000D10559F7DF91CF911F910F910895809187
:101570002103882319F08CE291E002C084E690E018
:10158000A0E0B0E02091E7023091E8024091E9024A
:101590005091EA02820F931FA41FB51F20912203CE
:1015A0003091230340912403509125038217930720
:1015B000A407B507D8F460E080912603882309F4D6
:1015C00061E06093260381E10E94E029809122037B
:1015D00090912303A0912403B09125038093E70207
:1015E0009093E802A093E902B093EA020895CF93A2
:1015F000DF93C1E0D0E0CE010E94D309FE01E650A6
:10160000FD4F6083718382839383CE010C960E9489
:10161000D309FE01EA5FFC4F608371838283938369
:101620002496CD30D10539F78BEF92E00E94F31963
:1016300087E093E061E00E94EE1BDF91CF91089577
:101640008091CC02882331F480916A00806380937A
:101650006A00EE9A81E00E94852081E08093330346
:10166000089586EE92E00E94EA2188E70E94761DA6
:1016700080ED97E00E946F1B82E00E94321B88E79A
:101680000E94881F88EC90E00E9427200E94092871
:101690008091D201E2E0F2E0E80FF11D808190E05C
:1016A0000E946E278BEE97E00E94CC2281E591E0AC
:1016B0000E94512688EC90E00E94E52481E0089584
:1016C0008091D1029091D202029731F487E094E0A8
:1016D0006CE071E00E94322F1092200310921F03E1
:1016E00080E090E0A0E0B0E08093F7029093F802F1
:1016F000A093F902B093FA028093F3029093F4025C
:10170000A093F502B093F6028093EF029093F0025B
:10171000A093F102B093F2021092210308951F9357
:1017200087E094E00E94442A181619060CF042C281
:1017300087E094E00E94602A182F853609F460C083
:10174000853409F442C0863609F43FC08634E9F195
:10175000833641F0833499F0843601F1873409F0FF
:1017600098C033C06091C7017091C8018091C901D0
:101770009091CA0120E030E040E85EE30CC0609147
:10178000C7017091C8018091C9019091CA0120E000
:1017900030E040E85FE30E94383327C06091C70122
:1017A0007091C8018091C9019091CA0120E030E098
:1017B00040E85EE30E9437336093C7017093C8012D
:1017C0008093C9019093CA0139C01734B9F460916C
:1017D000C7017091C8018091C9019091CA0120E0B0
:1017E00030E040E85FE30E9437336093C7017093B5
:1017F000C8018093C9019093CA0147C0153669F4A6
:101800006091CB017091CC018091CD019091CE017E
:1018100020E030E040E85EE30EC0153479F46091DA
:10182000CB017091CC018091CD019091CE0120E04F
:1018300030E040E85FE30E9438331FC0163669F499
:101840006091CB017091CC018091CD019091CE013E
:1018500020E030E040E85EE30EC01634B1F4609161
:10186000CB017091CC018091CD019091CE0120E00F
:1018700030E040E85FE30E9437336093CB01709320
:10188000CC018093CD019093CE010E943C080E9430
:10189000EC07133569F41092D2021092D10287E05E
:1018A00094E06AE171E00E94322F88EC90E054C02D
:1018B0001D3291F48091D1029091D202019739F0BA
:1018C00081E090E09093D2028093D1026CC110929B
:1018D000D2021092D10267C1183439F487E094E043
:1018E0006CE171E00E94322F5EC11437A9F490E0E0
:1018F0008091E502882309F491E09093E5020E942B
:10190000C30884E393E06CE170E04091E5020E943B
:101910009B150E94EC0747C1163509F587E094E056
:101920006EE171E00E94322F87E094E060E271E0A6
:101930000E94352E6091C5017091C60187E094E048
:101940000E94322F0E94EC0782E090E09093D20236
:101950008093D10284E690E00E94E52424C11934EA
:1019600009F08DC087E094E060E271E00E94352EBE
:101970006091C5017091C60187E094E00E94322F0A
:1019800087E094E063E271E00E94322F87E094E008
:1019900066E371E00E94352E87E094E06091D20109
:1019A0004AE050E00E94B02D87E094E069E371E0E6
:1019B0000E94352E4091CD025091CE026091CF020F
:1019C0007091D00287E094E022E030E00E941F2F67
:1019D00087E094E066E471E00E94352E6091E302B6
:1019E0007091E402882777FD8095982F0E94B43487
:1019F0009B01AC016091D7027091D8028091D9020D
:101A00009091DA020E941934AB01BC0187E094E0A6
:101A100022E030E00E941F2F84E591E06BEF72E03E
:101A20000E94570A81E691E067E073E00E94570A3E
:101A30008FE691E063E173E00E94570A87E094E04B
:101A40006CE771E00E94352E87E094E06091E60239
:101A50004AE050E00E94B02D0E94EC070E94290845
:101A600087E094E066E371E00E94352E87E094E021
:101A70006091D2014AE050E00E94B02D94C0103530
:101A800079F580E00E9485208091D20190E0019656
:101A900066E070E00E94C236E82F8093D201F0E049
:101AA000EE5FFD4F808190E00E946E2781E00E94F2
:101AB000852087E094E066E371E00E94352E87E0A0
:101AC00094E06091D2014AE050E00E94B02D84E39E
:101AD00093E069E170E04091D2010E949B1563C0E0
:101AE000123519F40E94600B5EC0143409F04CC02A
:101AF0006091E3027091E402882777FD8095982F2A
:101B00000E94B4349B01AC016091D7027091D8025D
:101B10008091D9029091DA020E9419342091CD026D
:101B20003091CE024091CF025091D0020E943833C2
:101B30006093CD027093CE028093CF029093D00237
:101B400020E030E040E853E40E94C0350E94813438
:101B50009B01AC018AE190E0B9010E94A30887E0F3
:101B600094E06CE871E00E94352E4091CD025091D6
:101B7000CE026091CF027091D00287E094E022E023
:101B800030E00E941F2F0FC0133769F490E080915E
:101B90002703882309F491E09093270304C087E08A
:101BA00094E00E94602A87E094E00E94442A18167C
:101BB0001906ACF31F9108952F923F924F925F92B6
:101BC0006F927F928F929F92AF92BF92CF92DF924D
:101BD000EF92FF920F931F93DF93CF93CDB7DEB7B2
:101BE000C755D0400FB6F894DEBF0FBECDBF0E94E0
:101BF000B70A0E948728609322037093230380937F
:101C000024039093250380913203882321F080914F
:101C10003303882329F48091CC02882309F4D3C6A6
:101C2000198281E090E0A0E0B0E080932E039093D1
:101C30002F03A0933003B0933103CE010896BE0169
:101C4000625F7F4FAE014C5E5F4F2EE233E08E014C
:101C50000E5F1F4F7E010894E11CF11C0E94D222EE
:101C60008981882311F41092320380912E03909180
:101C70002F03A0913003B09131030097A105B10566
:101C800009F0A1C6EC88FD880E891F89A88CB98C43
:101C9000CA8CDB8C6C8C7D8C8E8C9F8C28A139A19E
:101CA0004AA15BA128AF39AF4AAF5BAF8091CF01AA
:101CB0009091D001A0E0B0E0209122033091230365
:101CC0004091240350912503281739074A075B07E1
:101CD00008F479C6B801992777FD9095892F0E945D
:101CE000B43420E030E040E858E30E94C0356CAFE7
:101CF0007DAF8EAF9FAFB601992777FD9095892F65
:101D00000E94B43420E030E040E858E30E94C0353F
:101D10001B012C01B401992777FD9095892F0E9412
:101D2000B43420E030E040E858E30E94C0353B0185
:101D30004C0128AD39AD4AAD5BADBA01992777FDAD
:101D40009095892F0E94B43420E030E040E858E3B9
:101D50000E94C0355B016C016CAD7DAD8EAD9FAD59
:101D60009B01AC010E94C03524966CAF7DAF8EAF55
:101D70009FAF2497C201B101A20191010E94C03519
:101D800028966CAF7DAF8EAF9FAF2897C401B3018B
:101D9000A40193010E94C0352C966CAF7DAF8EAF2D
:101DA0009FAF2C97C601B501A60195010E94C035D1
:101DB00060966CAF7DAF8EAF9FAF6097C201B101EF
:101DC000A40193010E94C0357B018C016CAD7DADF7
:101DD0008EAD9FADA60195010E94C0359B01AC015F
:101DE000C801B7010E9438339B01AC010E9438330F
:101DF0007B018C0124966CAD7DAD8EAD9FAD24979B
:101E000028962CAD3DAD4EAD5FAD28970E9438337E
:101E10002C962CAD3DAD4EAD5FAD2C970E94373367
:101E200060962CAD3DAD4EAD5FAD60970E943733EF
:101E30009B01AC01C801B7010E94C23390582DE349
:101E400038EF42E256E40E94C03564966CAF7DAF35
:101E50008EAF9FAF6497C201B101A60195010E94A8
:101E6000C0357B018C016CAD7DAD8EAD9FADA40105
:101E700093010E94C0359B01AC01C801B7010E94CB
:101E800037339B01AC010E9438330E949C332DE311
:101E900038EF42E256E40E94C0356CA37DA38EA3C6
:101EA0009FA3C401B301A60195010E94C0357B0127
:101EB0008C016CAD7DAD8EAD9FADA20191010E94F4
:101EC000C0359B01AC01C801B7010E9438339B01AA
:101ED000AC010E9438337B018C0124966CAD7DAD42
:101EE0008EAD9FAD249728962CAD3DAD4EAD5FAD28
:101EF00028970E9437332C962CAD3DAD4EAD5FAD8B
:101F00002C970E94373360962CAD3DAD4EAD5FAD42
:101F100060970E9438339B01AC01C801B7010E9451
:101F2000C2332DE338EF42E256E40E94C0353B0154
:101F30004C0180912103882309F0DDC000911F032B
:101F4000109120038091D10190E0081719070CF03F
:101F500049C06091EF027091F0028091F10290917E
:101F6000F20264962CAD3DAD4EAD5FAD64970E941C
:101F700038336093EF027093F0028093F1029093F4
:101F8000F2026091F3027091F4028091F502909157
:101F9000F6022CA13DA14EA15FA10E9438336093AF
:101FA000F3027093F4028093F5029093F60260912D
:101FB000F7027091F8028091F9029091FA02A4015F
:101FC00093010E9438336093F7027093F802809374
:101FD000F9029093FA020F5F1F4F109320030093B2
:101FE0001F03F1C481E080932103B801882777FDA6
:101FF0008095982F0E94B4347B018C016091EF0290
:102000007091F0028091F1029091F202A801970183
:102010000E9419346093EF027093F0028093F102F2
:102020009093F2026091F3027091F4028091F502B4
:102030009091F602A80197010E9419346093F3026F
:102040007093F4028093F5029093F6026091F70288
:102050007091F8028091F9029091FA02A80197011B
:102060000E9419346093F7027093F8028093F9028A
:102070009093FA0280E090E0A0E0B0E08093DF026D
:102080009093E002A093E102B093E2028093DB021E
:102090009093DC02A093DD02B093DE028093D7021E
:1020A0009093D802A093D902B093DA028EEF9FEFFB
:1020B0009093E4028093E30284E68093D1018091BF
:1020C000D1029091D202029709F07DC487E094E09A
:1020D00060E271E00E94352E6091C5017091C601E9
:1020E00087E094E00E94322F87E094E06FE871E08F
:1020F0000E94322F68C48AE00E94132A892B19F4A7
:102100000E94600B60C464966CAD7DAD8EAD9FADDA
:1021100064972091EF023091F0024091F1025091CA
:10212000F2020E9437331B012C0120E030E040E036
:1021300057EC0E941534882354F4C201B10120E009
:1021400030E040E857E40E9438331B012C01C20103
:10215000B10120E030E040E057E40E94B5351816A8
:1021600054F4C201B10120E030E040E857E40E949D
:1021700037331B012C016CA17DA18EA19FA1209161
:10218000F3023091F4024091F5025091F6020E9460
:1021900037335B016C01C401B3012091F702309128
:1021A000F8024091F9025091FA020E9437333B0144
:1021B0004C01C201B10120E03CEF4FE756EC0E9418
:1021C000153488235CF40F2EF0E02F2EFCEF3F2E09
:1021D000FFE74F2EF6EC5F2EF02D14C0C201B101C7
:1021E00020E03CEF4FE756E40E94B535181654F452
:1021F0000F2EF0E02F2EFCEF3F2EFFE74F2EF6E4E0
:102200005F2EF02DC601B50120E03CEF4FE756EC04
:102210000E94153488235CF40F2EF0E0AF2EFCEF03
:10222000BF2EFFE7CF2EF6ECDF2EF02D14C0C60137
:10223000B50120E03CEF4FE756E40E94B535181693
:1022400054F40F2EF0E0AF2EFCEFBF2EFFE7CF2EA1
:10225000F6E4DF2EF02DC401B30120E03CEF4FE7A0
:1022600056EC0E94153488235CF40F2EF0E06F2E9C
:10227000FCEF7F2EFFE78F2EF6EC9F2EF02D14C083
:10228000C401B30120E03CEF4FE756E40E94B535AE
:10229000181654F40F2EF0E06F2EFCEF7F2EFFE7A0
:1022A0008F2EF6E49F2EF02D8091E502882309F40D
:1022B000CBC0E090C701F090C8010091C901109116
:1022C000CA01C201B10120E030E040E050E00E94CC
:1022D000B53518162CF428AA39AA4AAA5BAA07C051
:1022E000D201C101B05888AB99ABAAABBBAB20916E
:1022F000CB013091CC014091CD015091CE012CAB5E
:102300003DAB4EAB5FABC601B50120E030E040E035
:1023100050E00E94B53518162CF4ACA6BDA6CEA68A
:10232000DFA607C0D601C501B0588CA79DA7AEA7F0
:10233000BFA7C401B30120E030E040E050E00E94BC
:10234000B53518162CF468A679A68AA69BA607C0F0
:10235000A4019301505828A739A74AA75BA7C20137
:10236000B10127E831E040E059E30E94C035A20105
:1023700091010E94C035A80197010E94C0357B01E0
:102380008C01C201B10128A939A94AA95BA90E94FF
:1023900019349B01AC01C801B7010E94C0350E94ED
:1023A000813465966FAF659766967FAF669767963F
:1023B0008FAF679768969FAF6897C601B50127E80A
:1023C00031E040E059E30E94C035A60195010E942A
:1023D000C0352CA93DA94EA95FA90E94C0357B013B
:1023E0008C01C601B5012CA53DA54EA55FA50E9497
:1023F00019349B01AC01C801B7010E94C0350E948D
:1024000081345B016C01C401B30127E831E040E095
:1024100059E30E94C035A40193010E94C0352CA944
:102420003DA94EA95FA90E94C0357B018C01C40162
:10243000B30128A539A54AA55BA50E9419349B01C3
:10244000AC01C801B70130C0C201B1012091C70180
:102450003091C8014091C9015091CA010E94C03514
:102460000E94813465966FAF659766967FAF6697D9
:1024700067968FAF679768969FAF6897E090CB019C
:10248000F090CC010091CD011091CE01C601B501B3
:10249000A80197010E94C0350E9481345B016C0144
:1024A000C401B301A80197010E94C0350E94813484
:1024B0008B01F82FE92F65962FAD659766963FAD96
:1024C000669767964FAD679768965FAD6897C90145
:1024D000DA01AC01BD01403030E8530730E063075A
:1024E00030E0730724F04FEF5FE760E070E03A01FF
:1024F0004B0141E0641640E874064FEF84064FEF4D
:10250000940644F4B1E06B2EB0E87B2EBFEF8B2E27
:10251000BFEF9B2EC501D601AC01BD01403080E864
:10252000580780E0680780E0780724F04FEF5FE706
:1025300060E070E05A016B01413090E859079FEF6D
:1025400069079FEF790744F4A1E0AA2EA0E8BA2E0C
:10255000AFEFCA2EAFEFDA2E4F2F5E2FC801DA0190
:10256000AC01BD014030A0E85A07A0E06A07A0E036
:102570007A0724F04FEF5FE760E070E07A018B01AB
:102580004130B0E85B07BFEF6B07BFEF7B0744F458
:10259000F1E0EF2EF0E8FF2EFFEF0F2FFFEF1F2FE0
:1025A00080912703882369F470922903609228039D
:1025B000B0922B03A0922A03F0922D03E0922C03F9
:1025C0000CC010922D0310922C0310922B0310922A
:1025D0002A0310922903109228038091D10290912E
:1025E000D2020297C1F587E094E0B401A3012AE08A
:1025F00030E00E94CE2D87E094E063E071E00E941D
:10260000352E87E094E0B601A5012AE030E00E9473
:10261000CE2D87E094E063E071E00E94352E87E0E4
:1026200094E0B801A7012AE030E00E94CE2D87E0B7
:1026300094E063E071E00E94352ECE010E960E9478
:10264000960ACE0108960E94960A87E094E06CE90B
:1026500071E00E94322F82E694E068E273E00E940B
:10266000792C8091CA029091CB0201969093CB0273
:102670008093CA028091D1029091D202029709F40C
:10268000A6C0C401B3010E94B4347B018C019F77C2
:1026900020E030E84BE355E40E94153488230CF029
:1026A00040C0C801B7012091C4023091C5024091D9
:1026B000C6025091C7020E9437339F7720E030E076
:1026C00040EA50E40E94153488235CF5C601B50148
:1026D0000E94B4349F7720E030E048E454E40E9444
:1026E00015348823F4F48091C8029091C9020196B0
:1026F0009093C9028093C8026091C0027091C10298
:102700008091C2029091C302A80197010E943833C0
:102710006093C0027093C1028093C2029093C3027F
:1027200010C01092C9021092C80280E090E0A0E0B0
:10273000B0E08093C0029093C102A093C202B09314
:10274000C302E092C402F092C5020093C602109345
:10275000C7028091C8029091C9020A97C0F16091A6
:10276000C0027091C1028091C2029091C3022DEC0F
:102770003CEC4CEC5DE30E94C0352DEC3CEC4CECA9
:102780005DE30E94C0359B01AC016091EF02709146
:10279000F0028091F1029091F2020E94383360932E
:1027A000EF027093F0028093F1029093F202109284
:1027B000C9021092C80280E090E0A0E0B0E08093EF
:1027C000C0029093C102A093C202B093C3020E94C0
:1027D0008F0BA0902203B0902303C0902403D090CD
:1027E00025038091EB029091EC02A091ED02B09153
:1027F000EE028A159B05AC05BD0508F0E4C06091AA
:10280000EF027091F0028091F1029091F20220911A
:10281000CD023091CE024091CF025091D0020E9461
:1028200038337B018C016093EF027093F002809348
:10283000F1029093F20220E030E040E857E40E9479
:10284000B53518164CF4C801B70120E030E040E877
:1028500057E40E94373312C0C801B70120E030E0CE
:1028600040E857EC0E941534882384F4C801B7016E
:1028700020E030E040E857E40E9438336093EF02F4
:102880007093F0028093F1029093F20224E630E01C
:1028900040E050E0A20EB31EC41ED51EA092EB0273
:1028A000B092EC02C092ED02D092EE028091E3026F
:1028B0009091E40201969093E4028093E30218164B
:1028C000190604F5C201B1012091D3023091D4025E
:1028D0004091D5025091D6020E9437339B01AC0142
:1028E0006091D7027091D8028091D9029091DA025A
:1028F0000E9438336093D7027093D8028093D90234
:102900009093DA022092D3023092D4024092D50200
:102910005092D6028091D1029091D202029709F092
:1029200052C087E094E06DE971E00E94352E60911D
:10293000E3027091E402882777FD8095982F0E942A
:10294000B4349B01AC016091D7027091D8028091A0
:10295000D9029091DA020E941934AB01BC0187E0E0
:1029600094E022E030E00E941C2F87E094E063E0D6
:1029700071E00E94352E4091CD025091CE026091BF
:10298000CF027091D00287E094E022E030E00E9414
:102990001F2F1092CB021092CA02CE01049660E063
:1029A00070E00E94672187E094E060EA71E00E9495
:1029B000352E4C815D816E817F8187E094E02AE035
:1029C00030E00E940E2EC95ADF4F0FB6F894DEBFDA
:1029D0000FBECDBFCF91DF911F910F91FF90EF9070
:1029E000DF90CF90BF90AF909F908F907F906F902F
:1029F0005F904F903F902F90089587E094E040E0E3
:102A000052EC61E070E00E94432A64EF71E080E0E4
:102A100090E00E94EB288AE062E00E94532981E165
:102A200061E00E94532982E061E00E94E02982E097
:102A300060E00E94E02984E393E069E170E00E9495
:102A4000941584E393E069E170E00E94941584306A
:102A500010F083E006C084E393E069E170E00E9437
:102A600094158093D20184E393E06CE170E00E94BE
:102A700094158093E5020E94C30884E393E061E229
:102A800070E00E9494158093CC02823050F081E077
:102A90008093CC0284E393E061E270E041E00E9425
:102AA0009B158AE190E00E94370AAA2797FDA0951E
:102AB000BA2FBC01CD010E94B43420E030E040E8E0
:102AC0005BE30E94C0356093CD027093CE02809389
:102AD000CF029093D0028BE793E00E9481168CE0A6
:102AE0008093B800589859980E94310B8823D9F0E8
:102AF00064E670E080E090E00E94EB280E94200BEA
:102B000064E670E080E090E00E94EB2883E193E0CF
:102B10000E94B11B64E670E080E090E00E94EB2828
:102B20000E94F70A0895FFCFF999FECF72BD61BDEB
:102B3000F89A80B50895F999FECF1FBA72BD61BDAC
:102B400040BD0FB6F894FA9AF99A0FBE089581E045
:102B500080937A036093570310927803109279035D
:102B600008952091560330E080915503281B3109C8
:102B7000C90108954091550380915603481718F0F4
:102B80002FEF3FEF0AC0E42FF0E0EB5CFC4F8081B9
:102B9000282F30E04F5F40935503C9010895E0911D
:102BA000550380915603E81718F0EFEFFFEF06C0CA
:102BB000F0E0EB5CFC4F8081E82FF0E0CF0108955E
:102BC000089510927E0310927D0388EE93E0A0E0BA
:102BD000B0E080937F0390938003A0938103B09330
:102BE00082038CE092E090937C0380937B030895B2
:102BF000CF92DF92EF92FF920F931F93CF93DF93C9
:102C00007C016B018A0180917A038823A1F0C0E0E6
:102C1000D0E00DC0D701ED91FC91D601AC0FBD1FE6
:102C20000190F081E02DC7016C9109952196C017A4
:102C3000D10780F304C0CB01642F0E942A17C8017A
:102C4000DF91CF911F910F91FF90EF90DF90CF9088
:102C50000895DF93CF930F92CDB7DEB7FC01698360
:102C600080917A038823C9F080917903803238F00B
:102C700081E090E09383828320E030E015C0809172
:102C80007803E82FF0E0E85AFC4F998190838F5F3A
:102C9000809378038093790305C0CE01019661E0AB
:102CA0000E942A1721E030E0C9010F90CF91DF91F7
:102CB00008950F93062F8091570368E573E04091C4
:102CC000790321E00E94D5161092780310927903BF
:102CD00010927A030F91089561E00E9459160895A9
:102CE000413208F040E2862F65E373E00E948C16C3
:102CF0001092550380935603089521E00E947016A8
:102D00000895109255031092560310927803109272
:102D100079030E94D6180895382F413210F040E010
:102D200042C0809187038823E1F791E09093870365
:102D3000209389038FEF8093F4031092AF034150E7
:102D40004093B0034F5F9093880380918803330FC3
:102D5000832B8093880380918A03813041F4109201
:102D60008A03809188038093BB0085EC01C085EEC7
:102D70008093BC00809187038130E1F38091AF03A1
:102D8000841710F44091AF0320E030E00AC0FB014B
:102D9000E20FF31FD901A157BC4F8C9180832F5FA5
:102DA0003F4F2417A0F3842F08950F931F93582F9C
:102DB000122F413210F081E04AC0809187038823AE
:102DC000E1F782E080938703009389038FEF80937C
:102DD000F4031092AF034093B003AFE8B3E0FB01FC
:102DE00002C081918D938E2F861B8417D0F3109291
:102DF000880380918803550F852B809388038091E9
:102E00008A03813041F410928A0380918803809371
:102E1000BB0085EC01C085EE8093BC00112321F03E
:102E2000809187038230E1F38091F4038F3F11F4A6
:102E300080E00DC08091F403803211F482E007C07D
:102E40008091F403803311F084E001C083E01F918E
:102E50000F910895482F613210F081E0089580911C
:102E60008703843011F082E008956093D203A1EBD0
:102E7000B3E0842F9C01F90102C081918D938E2FC4
:102E8000841B8617D0F380E008951F920F920FB62F
:102E90000F9211242F933F934F935F936F937F93E0
:102EA0008F939F93AF93BF93EF93FF938091B9005C
:102EB00090E0887F90708036910509F4F2C08136E9
:102EC0009105CCF58832910509F47BC089329105D2
:102ED000B4F48031910509F46FC0813191053CF45F
:102EE000009709F447C1089709F04FC165C08831C0
:102EF000910509F466C0809709F047C182C080340B
:102F0000910509F4A4C08134910544F480339105FE
:102F100009F482C0C89709F038C189C0803591058D
:102F200009F489C08835910509F496C08834910563
:102F300009F02BC1AEC08839910509F413C1893954
:102F40009105ECF48837910509F4ABC089379105F8
:102F50004CF48836910509F4A4C08037910509F036
:102F600014C19FC08838910509F4FCC080399105CF
:102F700009F49DC08038910509F007C198C0803BD5
:102F8000910509F4C6C0813B91054CF4803A910546
:102F900009F49FC0883A910509F0F7C0BAC0803C97
:102FA000910509F4E3C0883C910509F4DFC0883B32
:102FB000910509F0EAC0C2C0809188038093BB00EC
:102FC000CFC09091AF038091B003981768F49091AF
:102FD000AF03E92FF0E0E157FC4F80818093BB0005
:102FE0009F5F9093AF03BCC080918903882309F44D
:102FF0004BC085ED8093BC008091BC0084FDFCCF6C
:10300000C2C080E28093F40385ED8093BC00809180
:10301000BC0084FDFCCFB7C080E38093F40385ED52
:103020008093BC008091BC0084FDFCCFACC088E3E1
:103030008093F4039BC08091AF039091BB00E82F75
:10304000F0E0E157FC4F90838F5F8093AF03909146
:10305000AF038091B00382C08091AF039091BB0019
:10306000E82FF0E0E157FC4F90838F5F8093AF0330
:1030700080918903882341F085ED8093BC00809185
:10308000BC0084FDFCCF7FC081E080938A0384EA8A
:103090006EC085ED8093BC008091BC0084FDFCCFA8
:1030A00072C083E0809387031092F30359C080912C
:1030B000F303803208F056C08091F3039091BB0077
:1030C000E82FF0E0ED52FC4F90838F5F8093F30385
:1030D00047C08091F303803230F4E091F303F0E0D5
:1030E000ED52FC4F108285ED8093BC008091BC00B6
:1030F00084FDFCCF109287036091F303E0918D0370
:10310000F0918E0383ED93E070E009951092F30344
:103110002DC084E0809387031092D1031092D203D4
:10312000E0918B03F0918C0309958091D203882361
:1031300029F481E08093D2031092B1039091D103DE
:10314000E92FF0E0EF54FC4F80818093BB009F5F3C
:103150009093D1039091D1038091D203981710F4EA
:1031600085EC01C085E88093BC000FC085EC80939E
:10317000BC0009C01092F40385ED8093BC008091DF
:10318000BC0084FDFCCF10928703FF91EF91BF91AB
:10319000AF919F918F917F916F915F914F913F91EF
:1031A0002F910F900FBE0F901F90189510928703CC
:1031B00081E08093890310928A0382E061E00E949B
:1031C000E02983E061E00E94E029E9EBF0E0808102
:1031D0008E7F808380818D7F808388E48093B80098
:1031E00085E48093BC000895EF92FF920F931F93A4
:1031F000CF93DF93582F162FE42E022FF32E8BE759
:1032000093E0652F0E94A7158BE793E0612F0E9442
:103210002916202F3F2DC901EC0110E006C08BE7D5
:1032200093E069910E9429161F5F1E15C0F38BE77A
:1032300093E00E946C1690E0882309F491E0892FB6
:10324000DF91CF911F910F91FF90EF9008952F92F2
:103250003F924F925F926F927F928F929F92AF9226
:10326000BF92CF92DF92EF92FF920F931F93DF9363
:10327000CF9300D000D00F92CDB7DEB7882E6983F0
:10328000942E3B832A830E9487285B016C01FF24D4
:10329000EE24292C33242801662477244BC08BE7A5
:1032A00093E0682D0E94A7158BE793E069810E9447
:1032B00029168BE793E00E946C168BE793E0682D4C
:1032C0000E94A715A1014E1951094132510514F070
:1032D00040E250E08BE793E0682D0E947D162F2D91
:1032E000332727FD30958A819B81280F391F3D8325
:1032F0002C838BE793E00E94B115892B09F452C00F
:103300000115110561F00E9487286A197B098C0953
:103310009D09641575058605970508F043C08BE780
:1033200093E00E94BA15EC81FD818193FD83EC83CB
:10333000F394DFCFE91408F4B2CF01151105C9F0F9
:103340000E9487286A197B098C099D09980140E031
:1033500050E0621773078407950758F02F2D332725
:1033600027FD3095892D90E02817390714F4FF24A4
:10337000FA948F2D0F900F900F900F900F90CF9188
:10338000DF911F910F91FF90EF90DF90CF90BF9052
:10339000AF909F908F907F906F905F904F903F90F5
:1033A0002F900895892DF0E2F91508F480E2E80ED7
:1033B000C1CFFC018091DA01813039F0813018F001
:1033C000823039F404C082E005C084E003C088E0A4
:1033D00001C080E180838091E301882319F080811E
:1033E000880F80830895CF92DF92FF920F931F93EF
:1033F000DF93CF9300D0CDB7DEB78C0143E1F42E3D
:103400006E010894C11CD11CF80180819181A281B8
:10341000B381892F9A2FAB2FBB27A7FDBA9589833C
:1034200080818A83E091D701F091D80180816F2D4E
:1034300042E096010E9434280C5F1F4FF2E0FF0E1D
:1034400089E1F81609F70F900F90CF91DF911F9146
:103450000F91FF90DF90CF900895DF93CF930F925D
:10346000CDB7DEB7982F8091F201882321F0992300
:1034700079F082E00BC08091DB01882319F1992358
:1034800039F08091E1018823D1F481E0898301C082
:103490001982E091D701F091D801A091D501B091A6
:1034A000D601808151966C9141E09E012F5F3F4F84
:1034B0000E943428892B31F489818093E10120E036
:1034C00030E002C02FEF3FEFC9010F90CF91DF91A5
:1034D0000895EF92FF920F931F93DF93CF9300D045
:1034E000CDB7DEB7FC018B017A014115510589F199
:1034F0008091DB01882369F1A091D701B091D801B7
:103500009B012E0F311D18968D919C911997821752
:103510009307F8F0F983EA83E091D501F091D601A1
:103520008C91638D42E09E012F5F3F4F0E943428B3
:10353000892B79F4E091D701F091D801A091D501C0
:10354000B091D601808158966C91402F97010E94CE
:1035500034280F900F90CF91DF911F910F91FF9022
:10356000EF9008951F93DF93CF930F92CDB7DEB7FF
:10357000182F8091F101811759F1112319F080E37F
:10358000898301C019828091E201882319F0898121
:10359000826089838091F001882319F08981806895
:1035A0008983E091D701F091D801A091D501B09124
:1035B000D601808157966C9141E09E012F5F3F4F6D
:1035C0000E943428892B11F08FEF03C01093F10172
:1035D00080E00F90CF91DF911F910895DF93CF93FB
:1035E0000F92CDB7DEB79C018091DB018823B1F14A
:1035F0002C3B310510F081E015C02236310510F06A
:1036000082E010C02A32310510F083E00BC0243173
:10361000310510F084E006C02A30310510F085E055
:1036200001C086E089839091DC0189819817B1F00F
:10363000E091D701F091D801A091D501B091D601C8
:10364000808112966C9141E09E012F5F3F4F0E9456
:103650003428892B19F489818093DC010F90CF9154
:10366000DF910895DF93CF930F92CDB7DEB7982FF8
:103670008091DB01882379F1943031F0983031F07A
:10368000923031F4198206C088E003C080E101C0A5
:1036900088E1898389818695869586959091DA015E
:1036A0009817C9F0E091D701F091D801A091D50108
:1036B000B091D601808117966C9141E09E012F5FF9
:1036C0003F4F0E943428892B31F489818695869555
:1036D00086958093DA010F90CF91DF910895DF9363
:1036E000CF930F92CDB7DEB79C018091DB01882389
:1036F000A1F181E0243F380749F083E0283E3807F4
:1037000039F02A3F310531F4198206C088E003C040
:1037100080E101C088E189838981869586958695B7
:103720009091D9019817C9F0E091D701F091D80193
:10373000A091D501B091D601808116966C9141E09F
:103740009E012F5F3F4F0E943428892B31F48981DD
:103750008695869586958093D9010F90CF91DF91BC
:103760000895CF92DF92EF92FF921F93DF93CF9352
:1037700000D0CDB7DEB77C0116E06E010894C11C05
:10378000D11CE091D701F091D8018081612F42E0F6
:1037900096010E942128898190E0A0E0B0E0BA2F34
:1037A000A92F982F88272A8130E040E050E0822B13
:1037B000932BA42BB52BF70181939193A193B193F4
:1037C0007F011E5F1C30E9F60F900F90CF91DF91C3
:1037D0001F91FF90EF90DF90CF9008957F928F928E
:1037E0009F92AF92BF92CF92DF92EF92FF920F9390
:1037F0001F93DF93CF93CDB7DEB761970FB6F894E1
:10380000DEBF0FBECDBFF82EE92E762E19821A82AA
:10381000DE011696EAE6F2E08CE001900D9281500E
:10382000E1F7DE011396E7E6F2E083E001900D9206
:103830008150E1F78E010A5F1F4FC8010E94B11B42
:10384000E3E0CE2ED12CCC0EDD1E2F2D3E2DC90156
:103850007C0176E0B72EAA24A3944E010894811C23
:10386000911CF80180819181A281B38180FF02C007
:10387000F601A082F7012081318142815381F1E07C
:103880007F1651F4821B930BA40BB50BF8018083B8
:103890009183A283B38305C0F801208331834283DF
:1038A0005383F80121913191419151918F01BB27AF
:1038B00057FDBA95A52F942F832F8983F601819107
:1038C0006F01822B8A83E091D701F091D80180812A
:1038D0006B2D42E094010E943428F2E0BF0E84E098
:1038E00090E0E80EF91E9CE0B91609F0BACF619697
:1038F0000FB6F894DEBF0FBECDBFCF91DF911F9101
:103900000F91FF90EF90DF90CF90BF90AF909F907E
:103910008F907F900895EF92FF920F931F93DF9304
:10392000CF9300D0CDB7DEB7FC018B017A014115F2
:10393000510589F18091DB01882369F1A091D701BC
:10394000B091D8019B012E0F311D18968D919C913D
:10395000199782179307F8F0F983EA83E091D5016C
:10396000F091D6018C91638D42E09E012F5F3F4F15
:103970000E943428892B79F4E091D701F091D80185
:10398000A091D501B091D601808158966C91402FBD
:1039900097010E9421280F900F90CF91DF911F91E6
:1039A0000F91FF90EF900895FF920F931F93DF9375
:1039B000CF930F92CDB7DEB7F82E8091E2018F152D
:1039C00009F48AC0E091D701F091D801A091D50106
:1039D000B091D6018E010F5F1F4FFF2069F18081EA
:1039E00014966C9141E098010E942128892B09F0DE
:1039F00075C089818F7D8983E091D701F091D801CD
:103A0000A091D501B091D601808114966C9141E0CE
:103A100098010E943428892B09F060C063E070E0AF
:103A200080E090E00E94EB2882E089838091F001A1
:103A30008823B1F182E831C0808114966C9141E015
:103A400098010E942128892B09F048C08091DB0150
:103A5000998180FF02C0906201C09F7D9983E091AF
:103A6000D701F091D801A091D501B091D601808104
:103A700014966C9141E09E012F5F3F4F0E943428C5
:103A8000892B61F563E070E080E090E00E94EB2814
:103A90008091F001882319F080E8898301C01982A0
:103AA0008091F101882319F0898180638983E091F5
:103AB000D701F091D801A091D501B091D6018081B4
:103AC00057966C9141E09E012F5F3F4F0E94342832
:103AD000892B21F4F092E20180E001C08FEF0F907A
:103AE000CF91DF911F910F91FF900895FF920F9357
:103AF0001F93DF93CF930F92CDB7DEB7F82E082F29
:103B000010E0C80180779070892B11F081E005C02A
:103B1000FF2011F0198202C080E48983E091D7016F
:103B2000F091D801A091D501B091D6018081559630
:103B30006C9141E09E012F5F3F4F0E943428892BFA
:103B400059F589818F7B8093DD01198206FD02C0C2
:103B500084E0898305FD03C089818260898304FD37
:103B600003C089818160898303FD03C089818863E3
:103B70008983E091D701F091D801A091D501B0914E
:103B8000D601808156966C9141E09E012F5F3F4F98
:103B90000E943428892B19F01092DB0112C0FF20FB
:103BA00031F088E0F81619F080E00E94B21AF09225
:103BB000DB011092E40162E370E080E090E00E949B
:103BC000EB280F90CF91DF911F910F91FF900895F7
:103BD0000F931F93DF93CF930F92CDB7DEB78091F2
:103BE000DB01882309F4FFC01982E091D701F0912D
:103BF000D801A091D501B091D601808151966C91E8
:103C000041E08E010F5F1F4F98010E943428892BDD
:103C100009F0E9C0E091D701F091D801A091D50158
:103C2000B091D601808115966C9141E098010E9477
:103C30003428892B09F0D7C0E091D701F091D80141
:103C4000A091D501B091D601808114966C9141E08C
:103C500098010E943428892B09F0C5C08091F20197
:103C6000E091D701F091D801A091D501B091D60192
:103C7000882309F45AC08CE08983808114966C9162
:103C800041E098010E943428892B09F0ACC062E31E
:103C900070E080E090E00E94EB2880EC89838091C6
:103CA000DB0180FF02C080EE8983E091D701F091B3
:103CB000D801A091D501B091D601808114966C9164
:103CC00041E09E012F5F3F4F0E943428892B09F06D
:103CD0008AC08091E101882319F082E0898301C0C4
:103CE0001982E091D701F091D801A091D501B0914E
:103CF000D601808151966C9141E08E010F5F1F4F7C
:103D000098010E943428892B09F06DC01982E09136
:103D1000D701F091D801A091D501B091D601808151
:103D200015966C9141E098015AC084E089838081A6
:103D300014966C9141E098010E943428892B09F077
:103D400052C08091E201882321F48091DB0180FD43
:103D500002C080E401C080E68983E091D701F09140
:103D6000D801A091D501B091D601808114966C91B3
:103D700041E09E012F5F3F4F0E943428892B99F527
:103D800062E370E080E090E00E94EB288091E10126
:103D9000882319F081E0898301C01982E091D7015D
:103DA000F091D801A091D501B091D60180815196B2
:103DB0006C9141E09E012F5F3F4F0E943428892B78
:103DC00091F4E091D701F091D801A091D501B09183
:103DD000D601808115966C9141E020EE31E00E9481
:103DE0003428892B11F08FEF01C080E00F90CF9124
:103DF000DF911F910F9108958F929F92AF92BF9282
:103E0000CF92DF92EF92FF920F931F93DF93CF93A6
:103E100000D0CDB7DEB77C014B015A018091F20191
:103E2000882311F481E065C08091DB01882311F4BF
:103E300084E05FC0E091D701F091D801A091D50155
:103E4000B091D60180811C966C9142E06E0108947D
:103E5000C11CD11C96010E942128892B09F048C061
:103E6000998180E02A81022F10E0082B192B0E1572
:103E70001F0520F4F501108285E03BC0A091D70119
:103E8000B091D80111968D919C9112979695879536
:103E90008017910798F4E091D501F091D6018C91AB
:103EA000638941E096010E942128892B09F58981C7
:103EB00084FF04C00E94E81D83E01BC0E091D7018D
:103EC000F091D801A091D501B091D60180811D96C5
:103ED0006C914E2D94010E942128892B49F4C80130
:103EE000B7010E94AE366150F501608380E001C0E9
:103EF00082E00F900F90CF91DF911F910F91FF9073
:103F0000EF90DF90CF90BF90AF909F908F900895EB
:103F10000F931F93982F8091F201882309F58091C8
:103F2000DB018823E9F0192F1E7F0091E001812336
:103F30008093E001112321F48091E401882331F082
:103F400081E00E942D1A112359F004C080E00E94E4
:103F50002D1A06C00E94E81D882311F00093E0018D
:103F60001F910F9108951F93DF93CF9300D0CDB78A
:103F7000DEB7182F893208F063C08823E9F480E0A7
:103F80000E94B21A198287E08A83E091D701F091EA
:103F9000D801A091D501B091D601808155966C9140
:103FA00042E09E012F5F3F4F0E943428892B09F089
:103FB00047C01092E40142C081E00E94B21A80E240
:103FC0008983113011F41A8204C0163028F481E07C
:103FD0008A8385E090E00BC0153128F482E08A8363
:103FE0008AE090E004C083E08A8384E190E00E944C
:103FF000EE1A8A818295880F880F807C87608A8379
:10400000E091D701F091D801A091D501B091D601EE
:10401000808155966C9142E09E012F5F3F4F0E9438
:104020003428892B69F488E08093DB011092DD014C
:1040300081E08093E40180E00E94881F80E001C05D
:104040008FEF0F900F90CF91DF911F9108950F93F5
:104050001F93DF93CF930F92CDB7DEB78C01809182
:10406000DB01882309F44BC08091F201882309F019
:1040700046C08091E401882359F0C80101978897D0
:1040800020F4802F0E94B31F3AC080E00E94B31F2B
:104090000430110518F464E070E007C0B80183E053
:1040A000093E180710F068EE73E088EE93E00E9476
:1040B000AE3661506983E091D701F091D801A091AB
:1040C000D501B091D601808111966C9141E09E019D
:1040D0002F5F3F4F0E943428892B89F4698170E05B
:1040E0006F5F7F4F88EE93E00E94C236CB017093E2
:1040F000DF016093DE01969587950E94EE1A0F907E
:10410000CF91DF911F910F910895DF93CF930F927D
:10411000CDB7DEB7982F8091F2018917D9F1992395
:1041200019F18091F3018823A9F180E00E942D1AF2
:1041300080E00E94D41C8091F4019091F5010E94CE
:1041400027201982E091D701F091D801808163E2A4
:1041500041E09E012F5F3F4F0E94342881E0809311
:10416000F2010E942D1A14C080E00E942D1A809145
:10417000E0018983E091D701F091D801808163E269
:1041800041E09E012F5F3F4F0E9434281092F201C0
:104190000E94E81D0F90CF91DF9108952F923F92DA
:1041A0004F925F926F927F928F929F92AF92BF9247
:1041B000CF92DF92EF92FF920F931F93DF93CF93F3
:1041C000CDB7DEB7A2970FB6F894DEBF0FBECDBF56
:1041D0004C015B011A0129018091F301882309F048
:1041E0005DC06115710509F459C0EE24FF2483E117
:1041F000C82ED12CCC0EDD1E03E0602E712C6C0E6F
:104200007D1E2DC084010E191F090131110510F00A
:1042100000E110E095012E0D3F1D80E090E009C007
:10422000F901E80FF91FE491D601A80FB91FEC932B
:10423000019680179107A0F3C701B801A6010E945B
:10424000691AC701B801A3010E948B1CC601B30102
:10425000A8010E94CF07009709F5E00EF11EE814AF
:10426000F90480F239822A82E091D701F091D801D5
:10427000A091D501B091D60180815D966C9142E00C
:104280009E012F5F3F4F0E943428892B39F481E033
:104290008093F3015092F5014092F401A2960FB67B
:1042A000F894DEBF0FBECDBFCF91DF911F910F916C
:1042B000FF90EF90DF90CF90BF90AF909F908F9046
:1042C0007F906F905F904F903F902F900895AF92A6
:1042D000BF92CF92DF92EF92FF920F931F93DF93E3
:1042E000CF9300D0CDB7DEB75C018B018091DB01AD
:1042F000882309F461C0E091D701F091D801A09121
:10430000D501B091D601808150966C9142E09E011A
:104310002F5F3F4F0E942128892B09F04DC0E98073
:10432000FA800115110519F0C8010E941428C090E7
:10433000D701D090D8017E2D60E02F2D30E0622B88
:10434000732B882777FD8095982F0E94B4347B01CA
:104350008C01F60166817781882777FD8095982FFB
:104360000E94B4349B01AC01C801B7010E943733ED
:104370007B018C01F6016481758180E090E00E94F0
:10438000B2349B01AC01C801B7010E94193420E08E
:1043900030E04CE052E40E94383320E030E040E866
:1043A00057E40E94C0350E948134F5016083718317
:1043B0008283938380E001C08FEF0F900F90CF91A5
:1043C000DF911F910F91FF90EF90DF90CF90BF9002
:1043D000AF900895EF92FF920F931F93DF93CF93C7
:1043E00000D000D000D0CDB7DEB77C018FEFD70171
:1043F0008C9380E88983E091D701F091D801A09156
:10440000D501B091D601808155966C9141E08E0125
:104410000F5F1F4F98010E943428892B09F0AFC00D
:1044200064E670E080E090E00E94EB281982E09161
:10443000D701F091D801A091D501B091D60180812A
:1044400055966C9141E098010E943428892B09F01F
:1044500096C0E091D701F091D801A091D501B0911B
:10446000D601808159966C9146E098010E942128DE
:10447000892B09F084C08E8190E081709070880F44
:10448000991F880F991F2C8130E021703070220F06
:10449000331F982F922B8A818170982BF70190837C
:1044A000992349F0913019F49093E30122C092309E
:1044B00009F065C01CC0E091D701F091D801A0912E
:1044C000D501B091D601808113966C9141E098019D
:1044D0000E942128892B09F052C089818F7009F42C
:1044E0004EC0843021F481E08093E30102C0109239
:1044F000E3012FEF2093DB012093D9012093DA0110
:104500002093DC018FEF9FEF9093DF018093DE011A
:104510002093E0012093E20181E08093DD0180930C
:10452000F0011092F1011092E5011092E4018AE08D
:10453000E6EEF1E0DF011D928A95E9F71092F201B3
:104540001092F3011092F5011092F40180ED97E0C2
:104550000E946F1B82E00E94321B84E690E00E9462
:1045600027208AE290E00E94EE1A80E00E94881FD5
:1045700080E00E94D41C882311F40E94761D2696A8
:104580000FB6F894DEBF0FBECDBFCF91DF911F9164
:104590000F91FF90EF9008959093F6038093F503A9
:1045A00080E008954F925F926F927F928F929F92D8
:1045B000AF92BF92CF92DF92EF92FF920F931F9331
:1045C000DF93CF93CDB7DEB7A0970FB6F894DEBFD9
:1045D0000FBECDBF582E492E962E872EB42EA52E57
:1045E00039016801A701D8011D921C928091FD0339
:1045F00090E08E010F5F1F4FB8010E94FC1E8823C0
:1046000009F0B4C0E090F903F090FA03C701847197
:104610009070892B11F410E03AC0F8018B2D9A2D7F
:104620009C01B9018E010F5E1F4F208130E040E0F8
:1046300050E0522F442733272227818190E0A0E0C9
:10464000B0E0DC0199278827282B392B4A2B5B2BDC
:10465000838190E0A0E0B0E0282B392B4A2B5B2B24
:10466000828190E0A0E0B0E0BA2FA92F982F882790
:10467000282B392B4A2B5B2BDB012D933D934D933C
:104680005D93BD013496E017F10779F610E1E6FE7F
:1046900023C0212F30E0AE014F5F5F4FFA01E20FE0
:1046A000F31F692D782DCB01DC012A5F3F4F240FCA
:1046B000351F508140E0818190E0842B952B8D93B4
:1046C0009D933296E217F307A1F71A5FF6018081F6
:1046D0009181886091838083C70180789170892B54
:1046E00021F1212F30E0AE014F5F5F4FFA01E20F61
:1046F000F31F652D742DCB01DC012A5F3F4F240F82
:10470000351F508140E0818190E0842B952B8D9363
:104710009D933296E217F307A1F71A5FD6018D91A8
:104720009C91119780678D939C93B3E0EB22FF24BB
:10473000EF28B9F0FE013196E10FF11D93818181DF
:1047400080FF0FC0E091F503F091F603309749F038
:10475000692F67706F5F9F73892F86958695869501
:104760000995F3011082118212821382A0960FB66E
:10477000F894DEBF0FBECDBFCF91DF911F910F9197
:10478000FF90EF90DF90CF90BF90AF909F908F9071
:104790007F906F905F904F900895DF93CF93CDB748
:1047A000DEB729970FB6F894DEBF0FBECDBF9E01CE
:1047B0002F5F3F4F882349F0D901EFE7F2E089E00E
:1047C00001900D928150E1F708C0D901E6E7F2E0CF
:1047D00089E001900D928150E1F788EB94E069E067
:1047E00070E0AE014F5F5F4F0E94691A29960FB6C5
:1047F000F894DEBF0FBECDBFCF91DF910895DF9358
:10480000CF9300D0CDB7DEB765E070E00E94AE3642
:1048100079836A8388E591E062E070E0AE014F5FE2
:104820005F4F0E94691A80E00F900F90CF91DF9147
:104830000895DF93CF9300D0CDB7DEB765E070E089
:104840000E94AE3679836A838AE591E062E070E087
:10485000AE014F5F5F4F0E94691A80E00F900F908A
:10486000CF91DF910895EF92FF920F931F93DF9303
:10487000CF9300D000D0CDB7DEB77A0100E010E0D2
:1048800028EE33E040E050E00E94F736C801B7015F
:104890000E948F36292F33274427552729839C01CF
:1048A000552737FD5095452F2A83272F382F492F1D
:1048B000552747FD5A952B836C838CE591E064E086
:1048C00070E0AE014F5F5F4F0E94691A80E00F9069
:1048D0000F900F900F90CF91DF911F910F91FF904C
:1048E000EF900895DF93CF9300D0CDB7DEB765E0AA
:1048F00070E00E94AE3679836A838AED91E062E0CF
:1049000070E0AE014F5F5F4F0E94691A80E00F9028
:104910000F90CF91DF910895DF93CF9300D0CDB763
:10492000DEB765E070E00E94AE3679836A838EED73
:1049300091E062E070E0AE014F5F5F4F0E94691A44
:1049400080E00F900F90CF91DF910895DF93CF9388
:104950000F92CDB7DEB7882311F481E003C0853014
:1049600008F084E0815089838FE491E061E070E099
:10497000AE014F5F5F4F0E94691A80E00F90CF91A8
:10498000DF910895DF93CF930F92CDB7DEB71982F1
:10499000282F80FF02C080E3898321FF03C0898123
:1049A0008C60898322FF03C089818360898388E4C6
:1049B00091E061E070E0AE014F5F5F4F0E94691AC5
:1049C00080E00F90CF91DF9108950F931F93DF93B5
:1049D000CF93CDB7DEB728970FB6F894DEBF0FBEE2
:1049E000CDBF8C01893C9105F0F488EC90E0B801D2
:1049F0000E94AE366150704079836A8386E192E00E
:104A000062E070E0AE014F5F5F4F0E94691A81EC77
:104A10009AE06CE070E048E852E00E94691A109356
:104A2000FC030093FB0328960FB6F894DEBF0FBE7D
:104A3000CDBFCF91DF911F910F910895DF93CF9359
:104A400000D000D0CDB7DEB7882349F080E289835B
:104A500088E28A8380E38B8388E38C8308C083EABF
:104A600093EAA3EAB3EA89839A83AB83BC838EE992
:104A70009AE064E070E0AE014F5F5F4F0E94691AF8
:104A80000E94E81D0F900F900F900F90CF91DF9133
:104A90000895DF93CF9300D000D0CDB7DEB7882341
:104AA00049F080EC898382EC8A8384EC8B8386ECEA
:104AB0008C8308C08BE89BE8ABE8BBE889839A83CA
:104AC000AB83BC8388E99AE064E070E0AE014F5F9D
:104AD0005F4F0E94691A0E94E81D0F900F900F907F
:104AE0000F90CF91DF910895AF92BF92CF92DF9256
:104AF000EF92FF920F931F93DF93CF9300D000D0DC
:104B00000F92CDB7DEB7A82EBB24C5018770907079
:104B1000892B09F4B5C086E06134780708F0B0C08D
:104B200080E090E00E94B23420E030E048E453E4BA
:104B30000E9419347B018C01CE0101960E94D91983
:104B400089818430F1F0853020F4823009F098C0FA
:104B500006C0883041F1803109F092C036C0C801EA
:104B6000B70120E030E040E856E40E94C0350E94E2
:104B700086346B01C801B70120E030E040E456E420
:104B800035C0C801B70120E030E040E056E40E94A3
:104B9000C0350E9486346B01C801B70120E030E0C7
:104BA00040EC55E423C0C801B70120E030E040E804
:104BB00055E40E94C0350E9486346B01C801B701DC
:104BC00020E030E040E455E411C0C801B70120E026
:104BD00030E040E055E40E94C0350E9486346B010D
:104BE000C801B70120E030E040EC54E40E94C03539
:104BF0000E948634862FDA82CB827C838D83A0FE4E
:104C000013C08E010E5F1F4F84ED91E062E070E0F3
:104C1000A8010E94691A0E5F1F4F84E291E062E0D2
:104C200070E0A8010E94691AA1FE13C08E010E5FF8
:104C30001F4F88ED91E062E070E0A8010E94691AC0
:104C40000E5F1F4F88E291E062E070E0A8010E94D1
:104C5000691AA2FE13C08E010E5F1F4F8CED91E00A
:104C600062E070E0A8010E94691A0E5F1F4F8CE29B
:104C700091E062E070E0A8010E94691A80E001C042
:104C80008FEF0F900F900F900F900F90CF91DF91BB
:104C90001F910F91FF90EF90DF90CF90BF90AF905A
:104CA0000895AF92BF92CF92DF92EF92FF920F934F
:104CB0001F93DF93CF93CDB7DEB72A970FB6F89443
:104CC000DEBF0FBECDBF8C0182E089838AEC8A8370
:104CD00083EE8B8389E08C8388E690E064E070E06B
:104CE000AE014F5F5F4F0E94691A83EA8983F0E447
:104CF000AF2EB12CA022B12206FF06C080EC8A8321
:104D000088EC8B8382EC02C08A838B838C83E0E8FF
:104D1000EE2EE1E0FE2EE022F122E114F10431F06A
:104D200084EC8D838CEC8E8386EC03C083EA8D83C8
:104D30008E838F8383EA888789878A8787EA9AE0C8
:104D40006AE070E0AE014F5F5F4F0E94691A73E046
:104D5000C72ED12CC022D122C114D10411F080E27F
:104D600001C088ED898386EB9AE061E070E0AE01D6
:104D70004F5F5F4F0E94691A05FF02C081E001C0CA
:104D800080E00E94CD23E114F104D9F010FF08C0A7
:104D900082EB89838BE88A8386EB8B838BE907C060
:104DA00080EB898380E88A8384EB8B8380E98C8322
:104DB00082EA9AE064E070E0AE014F5F5F4F0E94CC
:104DC000691AAE014F5F5F4F00FF2CC088EF8983E7
:104DD00080EB98E061E070E00E94691A87E06AEF7A
:104DE00070E00E94742587E00E94C22481E00E9446
:104DF000A62484E690E00E948C2484EF91E00E9437
:104E0000722469E073EE8AEC92E048EC50E00E9474
:104E1000332488E290E00E9419248AE090E00E9406
:104E2000FF2308C088ED898380EB98E061E070E0A3
:104E30000E94691A01FF02C089ED01C088ED8983D3
:104E40008DE397E061E070E0AE014F5F5F4F0E943D
:104E5000691A02FF02C081E001C080E00E9449257A
:104E600004FF02C081E001C080E00E941E25C8014D
:104E700088609093FA038093F9030E94E81D1092D2
:104E8000FD03AB2819F086E08093FD03EF2829F09D
:104E90008091FD038A5F8093FD0304711070012BE4
:104EA00029F08091FD03805F8093FD03CD2829F0D8
:104EB0008091FD038C5F8093FD032A960FB6F894D2
:104EC000DEBF0FBECDBFCF91DF911F910F91FF903D
:104ED000EF90DF90CF90BF90AF900895EF92FF9248
:104EE0000F931F93DF93CF9300D000D000D0CDB7A6
:104EF000DEB77C01AC0143705070FA01E356FD4F00
:104F000080818983C70133E0969587953A95E1F7CB
:104F100083709070FC01E356FD4F20812A83D701F6
:104F200026E0B695A7952A95E1F7A370B070FD012C
:104F3000E356FD4F20812B8346565D4FFA012081B9
:104F40002C8386569D4FFC0180818D83A656BD4FD4
:104F50008C918E8386E294E063E070E08E010F5FB7
:104F60001F4FA8010E94691A8AE294E063E070E092
:104F7000AE014C5F5F4F0E94691AD801E7E9F2E089
:104F800083E001900D928150E1F7DE011496E4E98F
:104F9000F2E083E001900D928150E1F7E2FE06C05D
:104FA0008981816089838C8181608C83E5FE06C064
:104FB0008A8181608A838D8181608D83F0FE06C045
:104FC0008B8181608B838E8181608E8380E494E00D
:104FD00063E070E0AE014F5F5F4F0E94691A81E3AA
:104FE00094E063E070E0AE014C5F5F4F0E94691A8D
:104FF000F092F803E092F70326960FB6F894DEBF1E
:105000000FBECDBFCF91DF911F910F91FF90EF9019
:10501000089586EF9BE065E171E040E054E028EC04
:1050200030E00E94CE2008950F931F938C010E94C0
:105030008728F80160837183828393831F910F9186
:1050400008950F931F930091D3011091D4010E94F2
:105050002719882319F42FEF3FEF02C020E030E03A
:10506000C9011F910F9108950E94F418882319F423
:105070002FEF3FEF02C020E030E0C90108951F92FA
:105080000F920FB60F9211242F933F938F939F93FC
:10509000AF93BF938091020490910304A091040404
:1050A000B0910504309106040196A11DB11D232F76
:1050B0002D5F2D3720F02D570196A11DB11D209396
:1050C00006048093020490930304A0930404B09315
:1050D00005048091FE039091FF03A0910004B0911C
:1050E00001040196A11DB11D8093FE039093FF035F
:1050F000A0930004B0930104BF91AF919F918F9151
:105100003F912F910F900FBE0F901F9018958FB762
:10511000F8942091020430910304409104045091CA
:1051200005048FBFB901CA010895789484B58260DF
:1051300084BD84B5816084BD85B5826085BD85B53B
:10514000816085BDEEE6F0E0808181608083E1E8EA
:10515000F0E0108280818260808380818160808322
:10516000E0E8F0E0808181608083E1E9F0E0808127
:1051700082608083808181608083E0E9F0E08081CB
:1051800081608083E1ECF0E08081846080838081B5
:1051900082608083808181608083E3ECF0E08081A5
:1051A00081608083E0ECF0E0808182608083E2ECCB
:1051B000F0E0808181608083EAE7F0E080818460B4
:1051C0008083808182608083808181608083808110
:1051D000806880830895EF92FF920F931F93CF937F
:1051E000DF937B018C013FB7F8948091FE0390918F
:1051F000FF03A0910004B091010426B5A89B05C04F
:105200002F3F19F00196A11DB11D3FBFBA2FA92F45
:10521000982F8827820F911DA11DB11D52E0880F84
:10522000991FAA1FBB1F5A95D1F7EC0130C00E94ED
:1052300036333FB7F8948091FE039091FF03A0911D
:105240000004B091010426B5A89B05C02F3F19F0BA
:105250000196A11DB11D3FBFBA2FA92F982F8827F6
:10526000820F911DA11DB11D32E0880F991FAA1F49
:10527000BB1F3A95D1F78C1B9D0B885E9340B8F20B
:105280000894E108F10801091109C851DC4FE11443
:10529000F1040105110559F6DF91CF911F910F918E
:1052A000FF90EF900895CF93DF93482F50E0CA010D
:1052B0008D5A924FFC0134914B5C524FFA0184910C
:1052C000882369F190E0880F991FFC01E55FF24F98
:1052D000A591B491FC01E75EF24FC591D49166238C
:1052E00051F42FB7F8948C91932F909589238C9338
:1052F000888189230BC0623061F42FB7F8948C91B8
:10530000932F909589238C938881832B88832FBF3B
:1053100006C09FB7F8948C91832B8C939FBFDF912D
:10532000CF910895883071F1893068F4823031F17D
:10533000833020F4813009F042C01DC0833089F0F1
:105340008430E9F512C08B3059F18C3028F4893063
:10535000E9F08A30A1F51EC08C3031F18E3079F53C
:1053600029C0809180008F7703C0809180008F7D5D
:1053700080938000089584B58F7702C084B58F7DB7
:1053800084BD0895809190008F7707C08091900030
:105390008F7D03C080919000877F80939000089557
:1053A0008091C0008F7703C08091C0008F7D809373
:1053B000C00008958091C200877F8093C200089545
:1053C000FF920F931F93F62E482F50E0CA018F587B
:1053D000924FFC012491CA018D5A924FFC01149105
:1053E0004B5C524FFA0104910023C9F0222319F0BB
:1053F000822F0E949229E02FF0E0EE0FFF1FE75E60
:10540000F24FA591B4919FB7F894FF2021F48C91AD
:105410001095812302C08C91812B8C939FBF1F918B
:105420000F91FF9008950F931F93482F50E0CA01EA
:105430008F58924FFC012491CA018D5A924FFC0162
:1054400004914B5C524FFA011491112319F420E09E
:1054500030E015C0222319F0822F0E949229812F5B
:1054600090E0880F991F895D924FFC01A591B4913E
:105470008C9120E030E0802311F021E030E0C90180
:105480001F910F9108950895FC012485858530E0D2
:10549000205C3F4F281B31092F733070C9010895DC
:1054A000FC0194858585981719F42FEF3FEF06C00E
:1054B0008585E80FF11D8685282F30E0C901089504
:1054C000DC011C969C911C971D968C911D9798173A
:1054D00019F42FEF3FEF10C01D968C911D97FD0121
:1054E000E80FF11D96851D968C911D978F5F8F7328
:1054F0001D968C93292F30E0C901089510920A045B
:105500001092090488EE93E0A0E0B0E080930B04D1
:1055100090930C04A0930D04B0930E0484EA92E0DF
:10552000909308048093070408950F931F93DF93CB
:10553000CF930F92CDB7DEB78C0169838091FF01C5
:10554000882369F083E0BE016F5F7F4F41E050E048
:105550000E94BC301816190614F49C0107C081E0A3
:1055600090E0F8019383828320E030E0C9010F903E
:10557000CF91DF911F910F91089583E00E949330A6
:1055800008950F931F93CF93DF938C01FC010FC0FD
:1055900082E00E94792F9C01FFEF8F3F9F0799F0D7
:1055A000F8018485E80FF11D2687F801C4878485FA
:1055B000C82FD0E02196CF73D070F801858590E098
:1055C000C817D90729F7DF91CF911F910F9108953F
:1055D000FC0180818E5F808380E86BE97DE042E49E
:1055E00050E00E94922F0895FC0181819081913AB0
:1055F00059F4813209F04CC080E068EF71E047E077
:1056000050E00E94922F42C0913209F041C0803296
:1056100039F488EF91E067E070E00E947B3036C09B
:10562000823209F035C082818093FF018091F801B8
:105630009091F901A091FA01B091FB01805B944037
:10564000A040B04019F58091FF0180FD12C087E7AE
:1056500097E790930108809300082BE088E190E0A1
:105660000FB6F894A895809360000FBE2093600059
:105670000DC088E10FB6F89480936000109260002E
:105680000FBEA895109201081092000881E00895BD
:1056900080E00895FC0191818081813A31F491305C
:1056A00089F080E0933089F40DC0813269F49B3039
:1056B00021F482818093000205C09A3029F482810E
:1056C0008093010281E0089580E00895EF92FF92B7
:1056D0000F931F938C01E62EDC01ED91FC91048069
:1056E000F581E02D0995F82ED801ED91FC91068009
:1056F000F781E02DC8016E2D09958F2D90E01F9147
:105700000F91FF90EF900895109255041092590454
:105710001092580486EB92E09093570480935604BD
:105720000895EF92FF920F931F93DF93CF930F9201
:10573000CDB7DEB789838B017A0184E0BE016F5F4C
:105740007F4F41E050E00E94BC3084E4B801A701E3
:105750000E94BC300F90CF91DF911F910F91FF906D
:10576000EF90089582E048E050E00E94912B089568
:10577000FC01168217821086118612861386148207
:105780003496BF010E94B22B0895DC01683810F0F6
:10579000685829C0E62FF0E067FF13C0E058F040DA
:1057A00081E090E002C0880F991FEA95E2F78095AA
:1057B00014962C911497282314962C93149760E038
:1057C00012C0E358F14F6491662319F420E030E0F1
:1057D0001DC067FF08C014968C9114978D7F149696
:1057E0008C9314976F77FD0190E0662321F08681FA
:1057F000861709F416829F5F31969630B1F7CD0176
:105800001496BD010E94B22B21E030E0C901089539
:10581000CF93DF93DC01683810F0685825C0E62F7D
:10582000F0E067FF12C0E058F04081E090E002C075
:10583000880F991FEA95E2F714962C911497282B5C
:1058400014962C93149760E00FC0E358F14F6491C5
:105850006623D9F167FF08C014968C911497826073
:1058600014968C9314976F7716968C9116978617CB
:10587000A9F117968C911797861781F118968C913C
:105880001897861759F119968C911997861731F147
:105890001A968C911A97861709F11B968C911B9773
:1058A0008617E1F0ED01E0E0F0E09E2F8E81882385
:1058B00021F4EA0FFB1F668306C09F5F3196219695
:1058C000E630F10591F7963049F481E090E01396C7
:1058D0009C938E93129720E030E007C0CD01149680
:1058E000BD010E94B22B21E030E0C901DF91CF91D0
:1058F0000895DF93CF9300D000D000D0CDB7DEB7AE
:10590000FB01808191819A838983828193819C8329
:105910008B83848195819E838D8384E0BE016F5F3C
:105920007F4F46E050E00E94912B26960FB6F894E8
:10593000DEBF0FBECDBFCF91DF91089580E86DED42
:105940007DE047E850E00E94922F0895FC0180819D
:105950008F5F808380E864E67EE049E150E00E944A
:10596000922F0895CF93DF930E9495288BE694E0C1
:105970000E949E300E94FD14C0E0D0E00E94DC0D29
:105980002097E1F30E940000F9CFCF92DF92EF92CF
:10599000FF920F931F93CF93DF937C016B018A01DA
:1059A000C0E0D0E00FC0D6016D916D01D701ED913F
:1059B000FC910190F081E02DC7010995C80FD91F16
:1059C000015010400115110571F7CE01DF91CF9103
:1059D0001F910F91FF90EF90DF90CF900895EF927D
:1059E000FF920F931F938C01DC01ED91FC910190CC
:1059F000F081E02D6DE009957C01D801ED91FC91DD
:105A00000190F081E02DC8016AE009959C012E0DFE
:105A10003F1DC9011F910F91FF90EF900895CF9303
:105A2000DF93EC016115710519F420E030E00FC03F
:105A3000DB010D900020E9F71197A61BB70BE88159
:105A4000F9810280F381E02DAD0109959C01C90126
:105A5000DF91CF9108954F925F927F928F929F92A4
:105A6000AF92BF92CF92DF92EF92FF920F931F936C
:105A7000DF93CF93CDB7DEB7A1970FB6F894DEBF13
:105A80000FBECDBF2C01742ECB01223008F42AE0CA
:105A900019A231E2C32ED12CCC0EDD1E822E992408
:105AA000AA24BB24672D752FA50194010E94D53629
:105AB00079018A01C801B701A50194010E948F36BE
:105AC000472D461B0894C108D1084A3014F4405DA4
:105AD00001C0495CF6014083E114F10401051105A0
